:020000040000FA
:040000001FD00ED02F
:0400080004EF04F00D
:040018000CEF04F0F5
:10002000A66E05A01200550EA76EAA0EA76EA68298
:100030000000A6B2FED712000A26D8B00B2A120082
:10004000A66AA968AA68A680A83C00EF04F0066A20
:100050001C0E056E0F019394000E006F080E016FC9
:10006000E81E056F000E026F070E036FFF0E186F7C
:10007000EB0E196FFF0E1A6FF80E1B6F030E706EEA
:100080009E0E716E030E726E200E736E6F6A0E0EF0
:10009000C16E939E939C818E818C609E040060AEA5
:1000A000FDD70FEE66F065500F0B096EF46EF5E0AC
:1000B00064B02BD010EE01F0EECFE6FFF42EFCD7AB
:1000C0000650EBE0010AD8A407D0A968AA68A86A7C
:1000D000040EA6DF819CFF000650020A05E10B6AB0
:1000E0000A6A0C900C6AD9D70650030A0AE1075035
:1000F0000A2606E108500B2203E10CB001D073D0B0
:1001000076D00650040AC9E176D00350F86EF00BA1
:10011000F36E0250F76EAA6E0150F66EA96E05A638
:1001200005D009500126E86A02220322300EF3604E
:1001300001D008D0F350300A01E12AD0F350F00A80
:10014000ACE132D005A405D0F6503F0B02E1940E8D
:1001500067DF05B2A2D7F650070B9FE1080EF46ED9
:10016000EE50F56E69DF0D00F42EFAD7080EF46E2E
:100170000A00ED50F42EFCD7840E52DF080EF46E08
:100180000900F550EE18D8A40C80F42EF9D785D7C5
:10019000EF50F56E51DF0C00C40E42DF0900F55040
:1001A000EE18F42EF5D779D7EF50A86E45DF040E80
:1001B00037DFA66AA680A850EE18D8A40C80A94AFA
:1001C000AA2AF42EF1D769D740B7FED7800E416F27
:1001D000080E426F000E436F040E446F448164A00A
:1001E000449140875AD7010E466F456FEDD7466B55
:1001F000010E456FE9D7020E466F010E456FE4D739
:060800000000AFEF07F05D
:0408080020EF04F0E9
:0C08100041434538432020009CEF04F0D9
:10082000A57105200209020B01010008000000006B
:1008300000000100000000001400100800008A0100
:100840006FCF0AF06ECF0BF0E9CF05F0EACF06F0DC
:10085000E1CF07F0E2CF08F0080EFA6E0B500E0B56
:10086000F92637D012D035D034D033D002D006D0CC
:1008700030D0A49200EE27F056EF04F0A49013B20B
:100880003FD000EE27F056EF04F00F0130AB08D058
:10089000185206E0182E04D030973F0E31173087DB
:1008A000509F0001609E749E749C14D06F50F10B99
:1008B0006F6E0B500E0B6F121FEE60F0E650EE6E77
:1008C0006E0EE162FBD7609E2CBC12D02C5201E070
:1008D0001380609EA46A6F50F10B0A106F6E05C002
:1008E000E9FF06C0EAFF07C0E1FF08C0E2FF110010
:1008F00013B2EFD70F0120B7FED720870001E9D749
:100900006566E7D76138E832780B196E6238E842DD
:10091000070B1910126E10EE5AF0566A5680080E28
:10092000126403D0125EE12AFBD7124E02D0564663
:10093000FCD75650E712CDD7006ED8CF01F0E0CFEC
:1009400002F0C00ECE6E9E6A825101E08207825094
:100950006B19781942E0796F781B79A106D06D5137
:1009600078B16E516CA1020E7A6F79A306D06D51E9
:1009700078B36E516CA3020E7B6F79A506D06D51D2
:1009800078B56E516CA5020E7C6F79A706D06D51BB
:1009900078B76E516CA7020E7D6F79A906D06D51A4
:1009A00078B96E516CA9020E7E6F79AB06D06D518D
:1009B00078BB6E516CAB020E7F6F79AD06D06D5176
:1009C00078BD6E516CAD020E806F79AF06D06D515F
:1009D00078BF6E516CAF020E816F7A5105E07A2FAD
:1009E00003D01B9078B11B807B5105E07B2F03D097
:1009F0001B9278B31B827C5105E07C2F03D01B94A3
:100A000078B51B847D5105E07D2F03D01B9678B708
:100A10001B867E5105E07E2F03D01B9878B91B887A
:100A20007F5105E07F2F03D01B9A78BB1B8A805132
:100A300005E0802F03D01B9C78BD1B8C815105E005
:100A4000812F03D01B9E78BF1B8E02C0E0FF005099
:100A500001C0D8FF100026B205D0A1A202D0817E2D
:100A6000A1920DD0F2A40BD013A401D0817CF294FA
:100A700013A605D0172E03D00A0E176E520E81B0A2
:100A800067D0640E146E156A166A162E45EF05F0CF
:100A900013A404D0F2A402D0817CF294152E45EF69
:100AA00005F081B040D0142E45EF05F026A255D0B8
:100AB000136A819C818EF26A010E126E010EA96E7C
:100AC000000E06EC09F0510E9FEC08F0106A116A56
:100AD00081A0FED783EC0DF081A0FAD7020EA96E9B
:100AE000000E06EC09F0A92A000E06EC09F026A279
:100AF0000DD0010EA96E000E06EC09F0136A2692C5
:100B0000819C818EC00EF26E2BEF05F0010EA96E56
:100B1000010E06EC09F026822FEC0DF013929EECEC
:100B200008F013841DD013A40CD01394818C520EA2
:100B30009FEC08F0010EA96E080E136E06EC09F08A
:100B400007D013842FEC0DF013929EEC08F008D020
:100B500013A206D01392138403D01382819EB8D7B8
:100B600013B034D0F2D18CEF06F013A897D0138ACB
:100B700018D113A893D0138C14D1B6EC0BF0000845
:100B800021E148EC0CF08AD013A488D0500E4E6EB0
:100B9000030E256E79EC0BF081D0B6EC0BF000085B
:100BA00011E154EC0CF07AD013A478D097EC0CF04F
:100BB00075D010501124D8A40BEC0DF06FD02E6A14
:100BC0002F6AAAD088EF06F0A0EF06F0900E2D5CF9
:100BD000CAE0910E2D5CC7E0920E2D5CC4E0980E29
:100BE0002D5CEDE0990E2D5CEAE09A0E2D5CE7E0BD
:100BF0005C0E2D5C49E0730E2D5C53E00D0E2D5CF8
:100C0000D8E026A24BD0420E2D5C5FE0100E2D5C8A
:100C1000DBE0110E2D5CC8E0530E2D5C66E0540E37
:100C20002D5C69E0550E2D5C6DE0560E2D5C5BE091
:100C3000D20E2D5C7BE0950E2D5C97E0B20E2D5C04
:100C400098E0710E2D5C1CE0960E2D5C7FE0570E37
:100C50002D5C18E0720E2D5C6CE0580E2D5C0AE0E5
:100C60009C0E2D5C9AE05D0E2D5C08E0750E2D5CEF
:100C700003E014D0BDEF05F058EF06F0FDEF06F0ED
:100C8000AFEF06F0B6EF06F0B6EC0BF0000840E16F
:100C9000FF0EA96EFF0E06EC09F0FF0013902BEF7C
:100CA00005F0B6EC0BF0000833E1ADEC0CF0F6D734
:100CB000B6EC0BF000082CE130C012F065EC0DF042
:100CC000520E9FEC08F04EEF06F013A4E7D753EC5A
:100CD00008F013941386819E0A0E176E520E9FEC35
:100CE00008F0818CDBD7C0EF06F0B6EC0BF0000803
:100CF0000FE11388D3D7B6EC0BF0000809E1139885
:100D0000139ACCD7B6EC0BF0000802E1CEEC0BF056
:100D1000C5D7020E1BEF0DF026A205D0DEEC09F0C0
:100D200000082BE0BBD780A83CD0F8D713B839D047
:100D3000B5D7B6EC0BF00008EBE121EC0CF0AED728
:100D400013B401D0ABD781EC0CF0A8D7B6EC0BF004
:100D50000008DEE188EC0BF0C7EC08F09FD7B6EC9A
:100D60000BF00008D5E19AEC0BF098D7B6EC0BF03D
:100D70000008CEE1F0EC0BF091D71CEC0AF08ED716
:100D8000B6EC0BF00008C4E1050EA96E01EC09F009
:100D90002008516E700E4E6E040E256E79EC0BF02D
:100DA0007DD726A20AD0D20E2D5C07E0950E2D5CD1
:100DB00004E0B20E2D5E01E078D0DEEC09F0000810
:100DC00015E026B207D080AA70D0A1EC09F0000887
:100DD0003BE06BD013BC27D013BA66D0A1EC09F06E
:100DE000000832E0040E27EC0DF05ED026B202D0EF
:100DF00080AA65D013AA2FD062D0B6EC0BF0000801
:100E000009E12FEC0DF0520E9FEC08F0080E136E66
:100E10004EEF06F088EF06F03FC053F0532AA6804D
:100E2000A8CF54F002D0536A546AD30E4E6E2EC02F
:100E30004FF02FC050F030C051F031C052F0070ECB
:100E4000256E7DEC0BF030D026B211D0050EA96EC8
:100E5000A680A8043A6E26B20FD03A44860FA96E37
:100E6000A680ECEC0BF03F5006EC09F01ED0050E0E
:100E7000A96EA680A8043A6E32C03FF03F5219E036
:100E80003F06020E3F6015D033C041F03A44860F52
:100E9000A96E3F50A92613BCBFD7415006EC09F0FC
:100EA000A9EC08F002D01398139C1390FA6A4EEF45
:100EB00006F0536A546A060E27EC0DF0B6D7050EFD
:100EC000A96EA680A8CF3CF0A8CF3DF03C463C469A
:100ED000060E3C26040E3C263A463A460A0E3A24B2
:100EE000A96EA680A850A906A906A906A90606EC1F
:100EF00009F0050EA9263C50A962F3D73A423D46B7
:100F0000860E3D26020E3D26880E3A24A96EA68046
:100F1000A850A906A90606EC09F0030EA9263D5023
:100F2000A962F5D7050EA96EA680A850196E1904FE
:100F300006EC09F0BEEC0BF026B203D0B190A19202
:100F4000819E139AA9EC08F0AED726A204D013A66E
:100F500004D013B402D019EC09F02BEF05F0F26ABB
:100F6000C26A0F0EC16E3F0E926E3B0E936E819C55
:100F7000819E8184FF0E946ED08EE06AA66A136A09
:100F8000186A776A6F8E030E706E9E0E716E030E76
:100F9000726E200E736E240E606E0F01200E506F65
:100FA000016B056B00010FEE18F0EE6A200EE9628E
:100FB000FCD76F6ABD6A840ED56E810ECD6E630E4E
:100FC000CF6E486A230EA56E9F6AA26AA06A010EC0
:100FD0009D6E010E126EF16AF06A230EA36E9E6A78
:100FE000A16A0F01509F0001609E749E749CA46AC8
:100FF000C7EC08F082506B19236E1E6E786F796F04
:101000001C6E1B6E1D6A1F6AC80E826F266A010E57
:10101000A96E01EC09F0136E13A00ED026827CECB1
:1010200008F0BEEC0BF0C7EC08F0C00EF26E819E2B
:10103000818C13902BEF05F00F0E8014196E120E99
:1010400081141A6E1A461AB41A881A1C300B191019
:10105000010F246E106A116E269081AA26802692B6
:1010600066EC08F080A838EF08F080AACEEC0BF010
:10107000BEEC0BF0C00EF26E819C818E2BEF05F062
:1010800000EE48F01FEE30F00F0130B7FED7000140
:10109000EE50E66E560EE962FBD70F0130B7FED771
:1010A0003087000112002EC010F02FC011F0020E88
:1010B000A96E105006EC09F0A92A115006EC09F0AF
:1010C000010EA96E090E06EC09F012000D6EABECD4
:1010D00008F0F00E49160E5049120F504A6E0F01DB
:1010E00020B7FED7216B0E50216F0F50226FB00E2C
:1010F0002113256B00011200000EA96EA680A850D6
:101100000D6EABEC08F0F00E49160E5049120F5060
:101110004A6E020EA96E01EC09F0106EA92A01ECCC
:1011200009F0116E0F012097216B0E50216F0F50A7
:10113000226FB00E2113256B00011200500E4E6E6F
:1011400010C04FF011C050F0030E256E79EC0BF07B
:101150001200590EF4D70DC00FF00F3A0F44E00BF8
:101160000F6E0DC00EF00E420E420E400F0B0E6EB3
:10117000120029C00FF00F3A0F40070B0F6E28C066
:101180000EF00E460E460E44780B0F101200C60EDF
:10119000A96EA680A8506A6FA92AA680A8506B6F76
:1011A000A92AA680A8506C6FA92AA680A8506D6FA6
:1011B0006D4B6D07020E6D656D6FA92AA680A85054
:1011C0006E6F6E4B6E07020E6E656E6FA92AA6805B
:1011D000A8506F6FA92AA680A850706FA92AA68070
:1011E000A850716FA92AA680A850726FA92A7A6B9D
:1011F0007B6B7C6B7D6B7E6B7F6B806B816B126A14
:101200001200A69EA69CA680A8501200A86EA69EBC
:10121000A69CA684F2CF0CF0F26A550EA76EAA0E19
:10122000A76EA682A6B2FED7A198A6940CC0F2FF24
:101230001200F2CF0CF0F26A1BC01CF00CC0F2FFDF
:101240001C5023187DE01F6E231A1C50E81E6F15DA
:101250001F141D1A1C506F151F14E81E1F161D5059
:10126000E81E6F151E6E6F51E81E1C141E1282516F
:1012700067E170511AE0900E4E6E702906E07051D1
:101280001F1413E01E1401E04E2A1C50526E020E71
:10129000516E10C04FF011C050F0050E256E0A0EB1
:1012A000186E79EC0BF07AEC0DF0216A206A208040
:1012B00026A4C7EC08F026846AC022F026B203D028
:1012C000226A26B0221ED8901F3204E2212A20363C
:1012D00037E2F9D7205009EC0AF0000821E021C0DC
:1012E00052F0522A516A900E4E6E1E50201404E0A5
:1012F000225020140FE14E8010C04FF011C050F06A
:10130000050E256E0F0E4916B00E49120A0E186E04
:1013100079EC0BF0212A203613E27AEC0DF0D3D7CA
:10132000060EA96ED8903A463A44020FA92601EC5F
:1013300009F0516EA92A01EC09F0526E980ED4D72B
:10134000120026B202D080AA1200050EA96EA68055
:10135000A8503A6E200E3A60010C01EE00F03A46B9
:101360003A463A502EC0EBFF010F2FC0EBFF010FA2
:1013700030C0EBFF010F31C0EBFF060E3A24A96E1F
:101380002E5006EC09F0A92A2F5006EC09F0A92AE4
:10139000305006EC09F0A92A315006EC09F0050E90
:1013A000A96EA680A850010F196E06EC09F026B2AE
:1013B00004D0200E195C01E1010C000C01EE00F0DC
:1013C000050EA96EA680A850146E145221E03A6A48
:1013D000386AEE502E62382AEE502F62382AEE50CC
:1013E0003062382AEE503162382A38660CD03A44DE
:1013F000860FA96EA990A680A8503F6EA92AA68044
:10140000A850416E000C145203E014063A2AE0D7AB
:10141000010C21C046F046863A6A200E146E860EF4
:10142000A96E01EC09F0465C06E03A2AA92AA92A2D
:10143000142EF7D7010C000C3FB61FD1910E2D5C76
:1014400009E0990E2D5C06E0000E3F5C06E0010EFF
:101450003F5C01E0120019EF0BF07AEC0DF0216A0D
:10146000050E256E2D50366E920E365C06E09A0EF5
:10147000365C06E1900E366E05D0930E366E02D0C5
:10148000900E366E36C04EF0516A21C052F0522A8C
:101490001EB04E2A09EC0AF0006E02E1DCEC0BF003
:1014A000212A71B10AD06FB108D06AA102D01EB052
:1014B00004D079EC0BF07AEC0DF0516A36C04EF0A6
:1014C0001EB24E2A21C052F0522A09EC0AF0006ED8
:1014D00002E1DCEC0BF0212A71B30AD06FB308D023
:1014E0006AA302D01EB204D079EC0BF07AEC0DF0B6
:1014F000516A36C04EF01EB44E2A21C052F0522A14
:1015000009EC0AF0006E02E1DCEC0BF0212A71B567
:101510000AD06FB508D06AA502D01EB404D079EC09
:101520000BF07AEC0DF0516A36C04EF01EB64E2A22
:1015300021C052F0522A09EC0AF0006E02E1DCEC04
:101540000BF0212A71B70AD06FB708D06AA702D072
:101550001EB604D079EC0BF07AEC0DF0516A36C06F
:101560004EF01EB84E2A21C052F0522A09EC0AF061
:10157000006E02E1DCEC0BF0212A71B90AD06FB9E0
:1015800008D06AA902D01EB804D079EC0BF07AEC2E
:101590000DF0516A36C04EF01EBA4E2A21C052F0EC
:1015A000522A09EC0AF0006E02E1DCEC0BF0212A71
:1015B00071BB0AD06FBB08D06AAB02D01EBA04D090
:1015C00079EC0BF07AEC0DF0516A36C04EF01EBC8F
:1015D0004E2A21C052F0522A09EC0AF0006E02E1B4
:1015E000DCEC0BF0212A71BD0AD06FBD08D06AADCA
:1015F00002D01EBC04D079EC0BF07AEC0DF0516AED
:1016000036C04EF01EBE4E2A21C052F0522A09ECBE
:101610000AF0006E02E1DCEC0BF071BF08D06FBF86
:1016200006D06AAF02D01EBE02D079EC0BF01D6A64
:1016300012002D50366E900E365C13E0980E365C1C
:1016400003E1900E366E0DD0920E365C03E1930EE0
:10165000366E07D09A0E365C02E04EEF06F0930E1F
:10166000366E36C04EF0010E516E7851526E050E38
:10167000256E79EC0BF0519012009A0E2D5C23E050
:10168000920E2D5C1FE0010E416E3F50070B13E0E0
:101690004146E80410E04146E8040DE04146E80414
:1016A0000AE04146E80407E04146E80404E0414618
:1016B000E80401E041462DB003D041501D12120054
:1016C000411C1D1612003F96010E576E3F5203E05B
:1016D0003F065746FBD75750781503E09E0E4E6ED7
:1016E00002D09D0E4E6E30C051F031C052F0050E4A
:1016F000256E10C04FF011C050F025504D6E0F0EEA
:101700004916B00E49120A0E186E40EC08F012008D
:101710000A0E30600BD0305009E0E806C60FA96E03
:10172000315006EC09F0A9EC08F012000A0E27EC83
:101730000DF012000A0E306015E0305013E0E8069C
:10174000C60FA96E01EC09F0526E30C051F02EC0E8
:101750004FF02FC050F0970E4E6E050E256E7DECAB
:101760000BF012000A0E27EC0DF0120010502E5C48
:1017700004E111502F5C01E1000C010C200E146EED
:10178000D8901446144601EE00F0060EA96EA6800D
:10179000A850EE6EA92A142EFAD71200C20E146EAB
:1017A000040EA96E000E06EC09F0A92A142EFAD731
:1017B00026B2A9EC08F01200060EA96ED8903A469F
:1017C0003A44020FA92601EC09F0516EA92A01EC56
:1017D00009F04E86526E12000F0E80143F6E1200FA
:1017E000196A050EA96E01EC09F03E6E000824E0AE
:1017F000010E556E060EA96E01EC09F0516EA92A74
:1018000001EC09F0526EA92A01EC09F0536EA92AE5
:1018100001EC09F0546EA92AF20E4E6E080E256EE8
:1018200079EC0BF07AEC0DF055520AE0192A3E5093
:10183000195C06E0552AE0D7070E27EC0DF01200E0
:101840001200050EA96E01EC09F03E6E0008F4E0EE
:1018500030063060F1D7E846E846060FA96E01EC85
:1018600009F0516EA92A01EC09F0526EA92A01EC87
:1018700009F0536EA92A01EC09F0546E302A30C0E9
:1018800055F0F20E4E6E080E256E79EC0BF012003C
:10189000050EA96E01EC09F0516E740E4E6E040E29
:1018A000256E79EC0BF0120030500008C5E0050EF3
:1018B000A96E01EC09F030C019F019061960BCD707
:1018C0001950020D3150000818E031C01AF01A0604
:1018D000020E1A6012D01A50F324860FA96E01EC82
:1018E00009F0536EB50E4E6E30C051F031C052F05B
:1018F000060E256E79EC0BF01200060E27EC0DF0AB
:101900001200EF0E4E6E080EF76E200EF66E00EE11
:101910004FF0070E146EA68E0900F5CFEEFF142EC1
:10192000FBD7A69E080E256E7DEC0BF01200E20E92
:101930004E6E100EF66E080EF76E00EE4FF0070EAC
:10194000146EA68E0900F5CFEEFF142EFBD7A69ECF
:10195000080E256E7DEC0BF01200305000082FE0D1
:10196000140E30C019F01906196034D09B0E4E6E5B
:10197000070E196204D0EEEC0CF0526E19D00E0E68
:10198000196204D0F5EC0CF0526E12D00F0E1962F1
:1019900004D0F9EC0CF0526E0BD0200EF66E080E4F
:1019A000F76EF86A3004F626A68E0800F5CF52F0DE
:1019B00030C051F0050E256E79EC0BF012009B0E35
:1019C0004E6E140E526E30C051F0050E256E79EC3D
:1019D0000BF012000A0E27EC0DF01200030E26B2D7
:1019E0000409196E198619501200FDEC0CF0F35021
:1019F0001200FDEC0CF0F45012003F0EF86EFF0EDA
:101A0000F76EFE0EF66EA68E0900F5CFF3FF080006
:101A1000F5CFF4FF120083EC0DF0B60E4E6EA50E5E
:101A2000516E050E526EEEEC0CF0536E060E256EE6
:101A300079EC0BF0120027EC0DF04EEF06F027ECDE
:101A40000DF055EF07F027EC0DF054EF07F0516E55
:101A50006F0E4E6E040E256E79EC0BF01200E1CF86
:101A600058F0E2CF59F0C00EF26E1382486A0E0EA3
:101A7000146E00EE5AF0EE6A142EFDD7BF0E496EBA
:101A8000E00E4A6E400E256E3C0EB36EAF0EB26E87
:101A9000B10EB16E0A0E186E7DEC0BF04D6AA1A26C
:101AA000FED7B190A192126A122A566A568010EEA1
:101AB0005AF0E72804E1080E1226E12AFAD7565018
:101AC000E71403E05636122AFAD7640E12600CD0DF
:101AD000000EA96E125006EC09F07CEC08F058C01C
:101AE000E1FF59C0E2FF1200070E27EC0DF012686B
:101AF000129EEED70A0E156E146A142E7DEF0DF0AD
:101B0000152EFAD71200640E166E7AEC0DF0162E12
:041B1000FCD71200EC
:020000040030CA
:0300010006061ED2
:020005008081F8
:060008000FC00FE00F40E5
:0200000400F00A
:060000007F00000000007B
:0A0086000000000000000000000070
:100090000000000000000000000000000000000060
:1000A0000000000000000000000000000000000050
:1000B0000000000000000000000000000000000040
:1000C0000000000000000000000A0A00000000001C
:0600D0000000000000002A
:0200FE00000000
:00000001FF
