:020000040000FA
:040000001FD00ED02F
:0400080004EF04F00D
:040018000CEF04F0F5
:10002000A66E05A01200550EA76EAA0EA76EA68298
:100030000000A6B2FED712000A26D8B00B2A120082
:10004000A66AA968AA68A680A83C00EF04F0066A20
:100050001C0E056E0F019394000E006F080E016FC9
:10006000E81E056F000E026F070E036FFF0E186F7C
:10007000EB0E196FFF0E1A6FF80E1B6F030E706EEA
:100080009E0E716E030E726E200E736E6F6A0E0EF0
:10009000C16E939E939C818E818C609E040060AEA5
:1000A000FDD70FEE66F065500F0B096EF46EF5E0AC
:1000B00064B02BD010EE01F0EECFE6FFF42EFCD7AB
:1000C0000650EBE0010AD8A407D0A968AA68A86A7C
:1000D000040EA6DF819CFF000650020A05E10B6AB0
:1000E0000A6A0C900C6AD9D70650030A0AE1075035
:1000F0000A2606E108500B2203E10CB001D073D0B0
:1001000076D00650040AC9E176D00350F86EF00BA1
:10011000F36E0250F76EAA6E0150F66EA96E05A638
:1001200005D009500126E86A02220322300EF3604E
:1001300001D008D0F350300A01E12AD0F350F00A80
:10014000ACE132D005A405D0F6503F0B02E1940E8D
:1001500067DF05B2A2D7F650070B9FE1080EF46ED9
:10016000EE50F56E69DF0D00F42EFAD7080EF46E2E
:100170000A00ED50F42EFCD7840E52DF080EF46E08
:100180000900F550EE18D8A40C80F42EF9D785D7C5
:10019000EF50F56E51DF0C00C40E42DF0900F55040
:1001A000EE18F42EF5D779D7EF50A86E45DF040E80
:1001B00037DFA66AA680A850EE18D8A40C80A94AFA
:1001C000AA2AF42EF1D769D740B7FED7800E416F27
:1001D000080E426F000E436F040E446F448164A00A
:1001E000449140875AD7010E466F456FEDD7466B55
:1001F000010E456FE9D7020E466F010E456FE4D739
:06080000000006EF08F005
:0408080020EF04F0E9
:0C08100041434335202020006EEF04F02F
:10082000A5560280030C020B010100080000000025
:100830000000010000000000140010080000D001BA
:10084000006ED8CF01F06FCF13F06ECF14F0FACF57
:1008500003F0FA6AE9CF05F0EACF06F0E1CF07F03E
:10086000E2CF08F0080EFA6E14500E0BF92618D0DD
:1008700006D016D015D014D013D012D011D00F013D
:1008800030AB08D0245206E0242E04D030973F0E1F
:1008900031173087509F0001609E749E749C01D078
:1008A000609EA46A6F50F10B13106F6E03C0FAFFC5
:1008B00005C0E9FF06C0EAFF07C0E1FF08C0E2FF8C
:1008C000005001C0D8FF100025B212001EA2120075
:1008D0000F0120B7FED7208700011200006ED8CF8D
:1008E00001F0E0CF02F0EACF06F0E9CF05F0E2CF69
:1008F00008F0E1CF07F000019EA043D0E00ECE6EDD
:100900009E6A456A466A695105E0692F03D04580B1
:1009100080C069F06A5105E06A2F03D0458281C02A
:100920006AF06B5105E06B2F03D0458482C06BF0F9
:100930006C5105E06C2F03D0458683C06CF06D517F
:1009400005E06D2F03D0458884C06DF06E5105E041
:100950006E2F03D0458A85C06EF06F5105E06F2F72
:1009600003D0458C86C06FF0705105E0702F03D026
:10097000458E87C070F0456601D039D04550821A47
:1009800036D0A192A092090EFA6E3550E846F926AB
:1009900007D00AD00ED012D016D01AD01ED022D036
:1009A00034502E1432E1352A344634502E143DE1B1
:1009B000352A344634502E1448E1352A3446345012
:1009C0002E1453E1352A344634502E145EE1352A74
:1009D000344634502E1469E1352A344634502E14EE
:1009E00074E1352A344634502E147FE1000006C0ED
:1009F000EAFF05C0E9FF08C0E2FF07C0E1FF02C04F
:100A0000E0FF005001C0D8FF100071AFCCD73450C8
:100A1000331403E171BD01D005D071BD03D098EC52
:100A20000FF073D09BEC0FF070D072AFC1D7345081
:100A3000331403E172BD01D005D072BD03D098EC30
:100A40000FF063D09BEC0FF060D073AFB6D734508B
:100A5000331403E173BD01D005D073BD03D098EC0E
:100A60000FF053D09BEC0FF050D074AFABD7345095
:100A7000331403E174BD01D005D074BD03D098ECEC
:100A80000FF043D09BEC0FF040D075AFA0D734509F
:100A9000331403E175BD01D005D075BD03D098ECCA
:100AA0000FF033D09BEC0FF030D076AF95D73450A9
:100AB000331403E176BD01D005D076BD03D098ECA8
:100AC0000FF023D09BEC0FF020D077AF8AD73450B3
:100AD000331403E177BD01D005D077BD03D098EC86
:100AE0000FF013D09BEC0FF010D078AF7FD73450BD
:100AF000331403E178BD01D005D078BD03D098EC64
:100B00000FF075D79BEC0FF072D7352A7951B26A86
:100B1000B36EA0826CD7040025B019D074BE01D08A
:100B200016D06F500F0B136E7750F00B1310776EBB
:100B300062B60CD065AC03D064EC04F007D065520B
:100B400001E104D03AEC0FF0258001D0609E1EB286
:100B500005D0A1A202D0817EA1920DD0F2A40BD02B
:100B600025A401D0817CF29425A605D0232E03D0A4
:100B70000A0E236E520E80B467D0640E1F6E206A78
:100B8000216A212EC1EF05F025A404D0F2A402D0E1
:100B9000817CF294202EC1EF05F080B440D01F2E4E
:100BA000C1EF05F01EA255D0256A819C818EF26AA4
:100BB000010E1D6E010EA96E000ED9EC09F0510E4A
:100BC000AEEC09F01A6A1B6A80A4FED77EEC0EF028
:100BD00080A4FAD7020EA96E000ED9EC09F0A92A5A
:100BE000000ED9EC09F01EA20DD0010EA96E000E68
:100BF000D9EC09F0256A1E92819C818EC00EF26E9E
:100C00008BEF05F0010EA96E010ED9EC09F01E82E2
:100C1000BAEC0EF02592ADEC09F025841DD025A488
:100C20000CD02594818C520EAEEC09F0010EA96E09
:100C3000080E256ED9EC09F007D02584BAEC0EF029
:100C40002592ADEC09F008D025A206D02592258486
:100C500003D02582819EB8D725A05DD745D025A891
:100C6000C7D0258A3AEC0FF06DD125A8C1D03AEC57
:100C70000FF0645103E06407030E646110D1258C0A
:100C800061D1FBEC09F0000803E145EC0AF0B0D0BB
:100C900040EF07F0FBEC09F0000807E169CF66F0D0
:100CA0006ACF64F08CEC0DF0A3D040EF07F069EF51
:100CB00007F025A49DD0C7EC0DF09AD025A498D0BC
:100CC000DDEC0DF095D01A501B24D8A43BEC0EF0AF
:100CD0008FD0606B616BFDD078EF07F081EF07F08C
:100CE00088EF07F02FEF06F0900E5F5CE0E0910ECA
:100CF0005F5CDDE0920E5F5CDAE0980E5F5CE9E03D
:100D0000990E5F5CE6E09A0E5F5CD1E05C0E5F5C82
:100D100050E0730E5F5C5DE01EA26AD0420E5F5C25
:100D20006BE00D0E5F5CCFE0100E5F5CC2E0110E59
:100D30005F5CC4E0530E5F5C37E0540E5F5C2EE0F6
:100D4000550E5F5C29E0560E5F5C7AE0710E5F5CC9
:100D5000C5E0960E5F5CC0E0D20E5F5C21E0950EB0
:100D60005F5CC0E0B20E5F5C80E0570E5F5CB8E095
:100D7000720E5F5C17E0580E5F5C18E09C0E5F5CC3
:100D800089E05D0E5F5C04E0750E5F5C03E030D0CF
:100D900059EF07F00AEF07F030EF07F029EF07F0FF
:100DA00044EF07F052EF07F022EF07F041EF06F0B3
:100DB0001FD01EA20AD0FBEC09F0000861E1FF0E73
:100DC000A96EFF0ED9EC09F0FF006051612558E1D2
:100DD000F6D71EA207D0FBEC09F0000851E1F3ECB6
:100DE0000DF006D0605161254BE1F3EC0DF000D021
:100DF000609E25908BEF05F025A4FAD777EC09F0DB
:100E0000259425860A0E236E520EAEEC09F0818CD5
:100E1000819EEED7FBEC09F0000832E162C01DF0C4
:100E200007EC0FF0520EAEEC09F0F8EF06F025A437
:100E3000DFD7500E3D6E030E286EECEC09F0D8D7CC
:100E40009AEF07F0FBEC09F000081AE12588818C85
:100E5000CFD7FBEC09F0000813E12598259AC8D7F5
:100E6000FBEC09F000080CE125A80BD098EC0BF086
:100E7000C9EC0FF07AEC0FF0590EAEEC09F0EED79A
:100E8000B7D7020E61EF0EF025A8B2D73AEC0FF0FB
:100E9000645105E06407030E646101D053D0060E6F
:100EA00061EF0EF0FBEC09F00008EAE163EC0DF0F5
:100EB0009FD7FBEC09F000080AE1BAEC0EF0520EE5
:100EC000AEEC09F0609E080E256EF8EF06F040EFDC
:100ED00007F03AEC0FF01EA205D032EC0CF000083F
:100EE0001EE086D780A22ED0F8D7030E61EF0EF059
:100EF000FBEC09F00008C4E185EC0EF07AEC0FF091
:100F000077D7FBEC09F00008BBE194EC0EF070D74A
:100F1000FBEC09F00008B4E103EC0DF069D709EC33
:100F20000CF0EECF2EF0EECF30F0EECF31F092ECB1
:100F300008F05ED7FBEC09F00008A2E1BBEC0DF075
:100F400057D700D032EC0CF000081FE01EB209D0D9
:100F500080A054D051EC0AF0000816E0040E65EFB2
:100F60000EF025BC0ED025BA48D0020E645D02E119
:100F700055EC0FF051EC0AF0000806E0040E69EFA2
:100F80000EF0050E69EF0EF039D01EB205D080B01C
:100F900014D0EAEC0AF031D025BC17D025AA0DD028
:100FA00009EC0CF0020EEBCF31F0BAEC0FF0EAECEA
:100FB0000AF0590EAEEC09F020D0020E645D02E199
:100FC00055EC0FF051EC0AF0DFD709EC0CF064C0DF
:100FD00042F0422A6451EBCF43F0D30E3D6E60C025
:100FE0003EF061C03FF062C040F063C041F0070EC8
:100FF000286EF0EC09F001D02598259C609E259084
:10100000FA6AF8EF06F0060E69EF0EF000EE00F057
:10101000EE6AE966FDD7F26AC26A0F0EC16E070E6C
:10102000926E3B0E936E819E819C8184000E946E25
:10103000826AD08EE06AA66A256A246A6F8EB00E34
:10104000776E778A7750166E0F01F86B606A506B77
:10105000206B306B406B506B606B706B0001030E4C
:10106000706E9E0E716E030E726E200E736E240EE5
:10107000606E0FEE18F0EE6A200EE962FCD76F6A20
:10108000BD6A840ED56EA10ECD6EB10ECF6EE00E90
:10109000CE6E376A230EA56E9F6AA26AA06A010E01
:1010A0009D6E010E1D6EF16AF06A200EA36E9E6A9F
:1010B000A16A609E749E749CA46A61EC0BF01E6A27
:1010C000010EA96ED4EC09F0256E000801E119D0DB
:1010D0001E828AEC09F07AEC0FF0900E5F6E7BC0F6
:1010E0002EF07AC030F07A1D3314E81E3012316AC7
:1010F00092EC08F0C00EF26E819E818C25908BEFF1
:1011000005F01E921A6A1B6A80A28AEF08F080A07E
:1011100098EC0BF07AEC0FF0C00EF26E819C818E91
:101120008BEF05F05FB279D0030E3114030A6AE049
:101130002EC02FF030C04BF02F1C82142F6E2E507B
:10114000301A5FA005D02E5030182F10496E04D0F1
:101150002E5030142F10496EF20EA96ED4EC09F007
:10116000336E2E1C331649503310336ED9EC09F010
:10117000010E346E356A7951FF08B36EB26A9D90E4
:1011800000004C6A010E4D6E00EE69F010EE80F02A
:101190004B1C2E144A6E4D502E1429E0E60E4C24A2
:1011A000A96ED4EC09F02F6EE89EE86601D01CD041
:1011B000E82A266E2FAE08D05FB014D04C5026C05F
:1011C000EBFF26C0E3FF13D05FB004D04D504B14AB
:1011D0000BE103D04D504B1407E04C5026C0EBFF01
:1011E000E36A05D04D1C49164C50EB6AE36A4C2A61
:1011F0004D36D1E32E1C8216495082129D80A0826A
:10120000B1801200010E346E356A7951FF08B36E59
:10121000B26A2E68A082B1801200E9CF0FF0EACF47
:1012200010F0E1CF11F0E2CF12F031AE12001C0E3F
:101230003114326E040E226E10EE3EF000EE60F0BD
:10124000EECFE6FF222EFCD73250E842E842226E73
:10125000222A346A3480222E01D002D03446FBD7B1
:101260003450331408E15FB603D0940E3D6E0FD0B6
:101270009E0E3D6E07D05FB603D0930E3D6E07D035
:101280009D0E3D6E050E286EECEC09F004D0050EA7
:10129000286EF0EC09F00FC0E9FF10C0EAFF11C0A2
:1012A000E1FF12C0E2FF1200E1CF0BF0E2CF0CF041
:1012B000E9CF0DF0EACF0EF000EE38F01FEE31F07E
:1012C0000F0130B7FED70001EE50E66E450EE96221
:1012D000FBD70F0130B7FED7308700010BC0E1FF0D
:1012E0000CC0E2FF0DC0E9FF0EC0EAFF120060C0B3
:1012F0001AF061C01BF0020EA96E6051D9EC09F022
:10130000A92A6151D9EC09F0010EA96E080ED9EC99
:1013100009F01200000EA96EA680A850176EB8EC56
:1013200009F0F00E3816185038121950396E020EA6
:10133000A96ED4EC09F01A6EA92AD4EC09F01B6E40
:101340000F0120B7FED7216B1850216F1950226F63
:10135000B00E2113256B00011200500E3D6E1AC015
:101360003EF01BC03FF0030E286EECEC09F01200BB
:1013700017C019F0193A1944E00B196E17C018F08C
:101380001842184218400F0B186E120062CF19F065
:10139000193A1940070B196E61CF18F01846184614
:1013A0001844780B19101200A69EA69CA680A8507F
:1013B0001200A86EA69EA69CA684F2CF15F0F26A33
:1013C000550EA76EAA0EA76EA682A6B2FED7A1984A
:1013D000A69415C0F2FF12001AC03EF01BC03FF0E9
:1013E00028503C6E0F0E3816B00E38120A0E246EBE
:1013F00054EC09F012001A50605D04E11B50615D6D
:1014000001E1000C010C200E1F6ED8901F461F46F4
:1014100002EE00F0060EA96EA680A850EE6EA92A74
:101420001F2EFAD7200E1F6ED8901F4602EE80F0B6
:10143000860EA96EA680A850EE6EA92A1F2EFAD796
:101440001200C20E1F6E040EA96E000ED9EC09F038
:10145000A92A1F2EFAD7800E1F6E02EE00F0EE6A48
:101460001F2EFDD71200130E8114266E276E274201
:101470002740040B2610070B266E010E2E6E2652F7
:1014800003E02E462606FBD71200050EA96ED4EC0B
:1014900009F0406E740E3D6E040E286EECEC09F0FF
:1014A00012001EB203D080A0000C02D025BA000C9E
:1014B00032EC0CF0000825E109EC0CF05CB002D035
:1014C0001EA20BD0645165C0EBFF9DEC0CF05CB02C
:1014D000000C590EAEEC09F0000C33EC0AF02EC0F3
:1014E0002FF02F50EF10EE6E2E6E81BA07D02F50D6
:1014F000EF12EFCF30F09DEC0CF0000C2F1CEF162C
:10150000F8D7040EA96ED4EC09F0000801E1010C33
:10151000DE0EA96ED4EC09F0506EDF0EA96ED4EC8D
:1015200009F0516E566601D00DD001EC0CF0575009
:10153000CBEC0CF0060EE92650C0EEFF51C0EEFFDA
:1015400097EC0CF009EC0CF05150CBEC0CF0040EC5
:10155000E926DE0EA96EEE50D9EC09F0DF0EA96E79
:10156000EE50D9EC09F058C0A9FF5050D9EC09F061
:10157000A92A5150D9EC09F05150CBEC0CF060C0C5
:10158000EEFF61C0EEFF62C0EEFF63C0EEFF56C02B
:10159000EEFF57C0EEFFEE6AEE6A080E676F000EB0
:1015A000EB6AE82A672FFCD75950D60FA96ED4EC06
:1015B00009F0E82AD9EC09F0050EA96ED4EC09F07F
:1015C000010FD9EC09F0A906D4EC09F0E806D9EC32
:1015D00009F074D732EC0CF0000801E01200DE0EC6
:1015E000A96ED4EC09F05A6EDF0EA96ED4EC09F0A6
:1015F0005B6E09EC0CF05150CBEC0CF0040EE926BC
:10160000EFCF54F05AC0EEFFEFCF55F05BC0EEFFC6
:10161000EFCF52F0EE6AEFCF53F0EE6ADE0EA96E16
:101620005050D9EC09F0DF0EA96E5150D9EC09F0F9
:101630009DEC0CF0526601D011D052C050F053C056
:1016400051F009EC0CF05150CBEC0CF0040EE926F3
:1016500054C0EEFF55C0EEFF9DEC0CF058C0A9FF42
:101660005450D9EC09F0A92A5550D9EC09F0546628
:1016700001D011D054C050F055C051F009EC0CF01D
:101680005150CBEC0CF0060EE92652C0EEFF53C0D1
:10169000EEFF9DEC0CF05950D60FA96ED4EC09F07A
:1016A000E806D9EC09F0050EA96ED4EC09F0E806BD
:1016B000D9EC09F0A906D4EC09F0010FD9EC09F036
:1016C00012005C6A040EA96ED4EC09F0266EA92AF9
:1016D000D4EC09F02626800E266201D0120003EC1D
:1016E0000AF0050EA96ED4EC09F02A6E98EC0BF006
:1016F0002A6601D012005C8012EE00F022EE80F02B
:10170000E6CF60F0E6CF61F0E6CF62F0E6CF63F0BF
:10171000000E646FDECF65F058EC0AF0010E646FC6
:10172000DECF65F058EC0AF02A2EEAD75C6A120088
:10173000050EA96E000ED9EC09F0800EA906D9ECB1
:1017400009F0100E1F6EC60EA96E000ED9EC09F03E
:10175000A92A1F2EFAD7080E1F6ED60EA96E000EEC
:10176000D9EC09F0A92A1F2EFAD76CEC0CF0DE0E8A
:10177000A96E300E506ED9EC09F0DF0EA96E000E86
:10178000516ED9EC09F08FEC0CF0526A536A800E5E
:101790001F6E51C026F050C027F02650CBEC0CF045
:1017A000100E2626000E2722EE6AEE6AEE6AEE6A18
:1017B0001F061BE027C0EEFF26C0EEFF52C0EEFF63
:1017C00053C0EEFF50C052F051C053F01F50030BF6
:1017D00005E0100E5126000E5022DFD79DEC0CF0D4
:1017E000100E5126000E5022D4D7266A26C0EEFFD6
:1017F00026C0EEFF52C0EEFF53C0EEFF9DEC0CF092
:101800001200C00E5714F66E5650F76E400E676FFA
:1018100008D0C00E5114F66E5050F76EF86A400EA4
:10182000676FF86AEACF5EF0E9CF5DF001EE00F095
:101830000900F550EE6E672FFBD75DC0E9FF5EC073
:10184000EAFF1200F86A50C0F7FF51C0F6FF100E11
:10185000676FE7D7F86A50C0F7FF51C0F6FF080E70
:10186000676FDFD7070E6315266E596E2646C60EC4
:101870002624586EA96ED4EC09F0506E566EA92A33
:10188000D4EC09F0516E576E506601D0010C5150E6
:10189000F66E5050F76EF86A296A0900F5506063D9
:1018A000292A0900F5506163292A0900F55062636D
:1018B000292A0900F5506363292A296606D0515068
:1018C000CBEC0CF0080EE926000C0900F550506E28
:1018D0000900F550516ED8D7200E1F6E000EF66E1F
:1018E000300EF76EF86A7DEC0CF01F2E01D012005E
:1018F000400EF626000EF722F6D7A68EA69CA684EA
:10190000A688F2CF15F0F26A550EA76EAA0EA76E42
:10191000A68200000000000015C0F2FF120001EED8
:1019200000F0400E676FEE6A672FFDD71200C00E01
:101930005714F66E5650F76E05D0C00E5114F66E61
:101940005050F76EF86A7DEC0CF001EE00F0020EDC
:10195000686F1F0E676FEE50F56E0D00672FFBD797
:10196000EE50F56E0C00BBEC0CF0F62A000EF722E0
:10197000682FEFD71200A68EA69CA698A684F2CF59
:1019800015F0F26A550EA76EAA0EA76EA682000089
:1019900015C0F2FF1200E83A030BE86603D001EE2F
:1019A00000F01200E806E86603D001EE10F0120025
:1019B000E806E86603D001EE20F0120001EE30F0F8
:1019C000120032EC0CF0000803E0656B646B08D089
:1019D00022EC0CF001EE08F06451EB50656F642BC3
:1019E000D30E3D6E00C13EF001C13FF002C140F098
:1019F00003C141F064C042F065C043F0070E286E99
:101A0000F0EC09F01200266A050EA96ED4EC09F07C
:101A100000082CE0446A080E2A6EC60EA96ED4ECAB
:101A200009F0506EA92AD4EC09F0516E506604D02A
:101A30002A0620E0A92AF3D72AEC0CF0442A00C198
:101A400040F001C141F002C142F003C143F0F20E87
:101A50003D6E080E286EECEC09F075EC0EF075EC9E
:101A60000EF004C150F005C151F0E0D7070E6DEC47
:101A70000EF012001200596A2A6A2B6A5950D60FCA
:101A8000A96ED4EC09F0000F05E02B262B506661FF
:101A900001D004D02BC02AF0592AF0D75944C60FE0
:101AA000A96ED4EC09F0506EA92AD4EC09F0516E5D
:101AB00066512A6012002A2A2AEC0CF004C150F068
:101AC00005C151F0F5D7050EA96ED4EC09F0000858
:101AD0001FE066511DE06607050EA96ED4EC09F003
:101AE000666116D03BEC0DF02AEC0CF000C140F022
:101AF00001C141F002C142F003C143F0662B66C050
:101B000044F0F20E3D6E080E286EECEC09F0120067
:101B1000070E6DEC0EF01200050EA96ED4EC09F064
:101B20000008F6E06651F4E06607050EA96ED4ECF5
:101B300009F06661EDD764511AE06407030E646131
:101B400016D03BEC0DF022EC0CF001EE08F06451E5
:101B5000EBCF42F0642B662BB50E3D6E66C040F0B5
:101B600064C041F0060E286EECEC09F01200060E7F
:101B70006DEC0EF01200040EA96ED4EC09F0406E6C
:101B8000700E3D6E040E286EECEC09F01200EF0EA4
:101B90003D6E200EF66E080EF76E00EE3EF0070E5C
:101BA0001F6EA68E0900F5CFEEFF1F2EFBD7A69E57
:101BB000080E286EF0EC09F01200E20E3D6E100ED9
:101BC000F66E080EF76E00EE3EF0070E1F6EA68E44
:101BD0000900F5CFEEFF1F2EFBD7A69E080E286E3C
:101BE000F0EC09F01200625100082FE0140E62C000
:101BF00026F02606266034D09B0E3D6E070E266228
:101C000004D034EC0EF0416E19D00E0E266204D0D2
:101C10004BEC0EF0416E12D00F0E266204D04FEC4A
:101C20000EF0416E0BD0200EF66E080EF76EF86ABD
:101C30006205F626A68E0800F5CF41F062C040F09E
:101C4000050E286EECEC09F012009B0E3D6E140E92
:101C5000416E62C040F0050E286EECEC09F01200F7
:101C60000A0E6DEC0EF01200010E1EB20409266E73
:101C70002686265012007EEC0EF0B60E3D6EA50EA6
:101C8000406E020E416E34EC0EF0426E060E286E6F
:101C9000ECEC09F0120053EC0EF0F350120053EC90
:101CA0000EF0F45012003F0EF86EFF0EF76EFE0EAF
:101CB000F66EA68E0900F5CFF3FF0800F5CFF4FF0E
:101CC00012006DEC0EF0F8EF06F06DEC0EF0FEEF8A
:101CD00007F06DEC0EF0FDEF07F0406E6F0E3D6EFD
:101CE000040E286EECEC09F012000A0E206E1F6A3A
:101CF0001F2E78EF0EF0202EFAD71200640E216E00
:101D000075EC0EF0212EFCD712000D0E6261120050
:101D1000625109E0E806E60FA96E6351D9EC09F0BB
:101D2000590EAEEC09F012000D0E626115E0625121
:101D300013E0E806E60FA96ED4EC09F0416E62C02C
:101D400040F060C03EF061C03FF0970E3D6E050E62
:101D5000286EF0EC09F01200406A416AF2D7080ED2
:101D60001F6EE60EA96E000ED9EC09F0A92A1F2EEF
:101D7000FAD71200E1CF4EF0E2CF4FF025820E0EDF
:101D80001F6E00EE88F0EE6A1F2EFDD7A0923C0E6B
:101D9000B36EAF0EB26EB10EB16EA1920F01BF0E57
:101DA000316FE00E326F400E356F30B7FED730879F
:101DB00030B7FED7356B0001A1B215D074BE01D08B
:101DC000FBD76F500F0B136E7750F00B1310776E1D
:101DD00062B607D025A205D0655203E11DEC0FF0D5
:101DE00000D0609EE9D7B190A1921D6A1D2A4D6A6C
:101DF0004D8010EE88F0E72804E1080E1D26E12A48
:101E0000FAD74D50E71403E04D361D2AFAD7640E79
:101E10001D600DD0000EA96E1D50D9EC09F01D50AB
:101E20008AEC09F04EC0E1FF4FC0E2FF1200070E3E
:101E30006DEC0EF01D681D9EEDD7656612006138D1
:101E4000E832780B266E6238E842070B26101D6ECA
:101E500010EE88F04D6A4D80080E1D6403D01D5EA3
:101E6000E12AFBD71D4E02D04D46FCD74D50E7125C
:101E7000609E120066CF5FF067CF60F068CF61F0C0
:101E800069CF62F06ACF63F06BCF64F06CCF65F01E
:101E9000980E665C07E0990E665C04E09A0E665C3C
:101EA00001E01200606B616B120065AF120065C04B
:101EB0002EF065511C0B060FA96E6051D9EC09F08C
:101EC000A92A6151D9EC09F0A92A6251D9EC09F08B
:101ED000A92A6351D9EC09F02E501C0BE842E842C4
:101EE000860FA96E2E50D9EC09F02EC065F07AEC61
:101EF0000FF01200080E1F6E860EA96E10EE71F024
:101F0000D4EC09F0E66EA92A1F2EFAD7EE0EA96EC0
:101F1000040E1F6E10EE79F0D4EC09F0E66EA92ADB
:101F20001F2EFAD7F20EA96ED4EC09F0336E120010
:101F3000900E3D6E02D0910E3D6E00EE3EF0060E0C
:101F4000A96E3550E846E846A926040E226E050E15
:101F5000286ED4EC09F0EE6EA92A222EFAD73E5252
:101F600006E13F5204E13D86ECEC09F01200F0EC92
:101F700009F012003150E8AE12001C0BE842E842B2
:101F80002E6E860FA96EE86AD9EC09F07AEC0FF094
:101F90001200860EA96E080E1F6EE86AD9EC09F0D1
:081FA000A92A1F2EFAD7120036
:020000040030CA
:0300010006061ED2
:020005008081F8
:060008000FC00FE00F40E5
:0200000400F00A
:060000007F00000000007B
:0A0086000000000000000000000070
:060090000000000000006A
:0A00C6000000000000000000000030
:1000D0000000000000000000000000000000000020
:1000E00000000000000000000000000000000A0006
:0400F000FFFF00000E
:0200FE00000000
:00000001FF
