:020000040000FA
:040000001FD00ED02F
:0400080004EF04F00D
:040018000CEF04F0F5
:100020007F6E05A01200550E7E6EAA0E7E6E7F8238
:1000300000007FB2FED712000A26D8B00B2A1200A9
:100040000E01030E436F7F6A746875687F8000003D
:10005000733C00EF04F0066A1C0E056E000EE06FA4
:10006000080EE16FE81EE56F000EE26F070EE36F0A
:10007000FF0EF86FEB0EF96FFF0EFA6FF80EFB6FC5
:100080009E0E446F030E456F0F015D6B5C6B200E7F
:10009000706E6F6A9490949482908294939E939CD5
:1000A000818E818C609E040060AEFDD70FEE66F0FD
:1000B00065500F0B096EF46EF5E064B02CD010EEB5
:1000C00001F0EECFE6FFF42EFCD70650EBE0010A7C
:1000D000D8A408D074687568736A040EA1DF8280A2
:1000E000819CFF000650020A05E10B6A0A6A0C9027
:1000F0000C6AD8D70650030A0AE107500A2606E11F
:1001000008500B2203E10CB001D074D077D0065018
:10011000040AC8E177D00350F86EF00BF36E02507A
:10012000F76E756E0150F66E746E05A605D0095017
:100130000126E86A02220322300EF36001D008D0C3
:10014000F350300A01E12AD0F350F00AABE132D08B
:1001500005A405D0F6503F0B02E1940E61DF05B215
:10016000A1D7F650070B9EE1080EF46EEE50F56E27
:1001700063DF0D00F42EFAD7080EF46E0A00ED507E
:10018000F42EFCD7840E4CDF080EF46E0900F550F7
:10019000EE18D8A40C80F42EF9D784D7EF50F56E62
:1001A0004BDF0C00C40E3CDF0900F550EE18F42EB6
:1001B000F5D778D7EF50736E3FDF040E31DF7F6ADB
:1001C0007F8000007350EE18D8A40C80744A752A02
:1001D000F42EF0D767D720B7FED7800E216F080E18
:1001E000226F000E236F040E246F248164A02491DB
:1001F000208758D7010E266F256FEDD7266B010E8D
:0E020000256FE9D7020E266F010E256FE4D799
:080800000000A2EF61F01200FC
:0808080007ED04F012000600E8
:06081000D9EF39F01200DF
:0108160000E1
:0608180082EF39F012002E
:02081E0080EF69
:10082000A56120FF147F031B0F01000800000000DA
:1008300000000103000000001400400800004E0307
:080840004D494F20202020004B
:080848005BEC20F085EF4EF09F
:100850000300B0C30000E9040000020000001E080D
:100860000000E70400000200000016080000EB048E
:0608700000000100000081
:0A087600D9CFE6FFE1CFD9FFE6522B
:10088000DF6A100EDF5C6DE2E5C4E9FFE6C4EAFF53
:10089000100EE926000EEA22E9CF14F0EACF15F097
:1008A000DF50070DE950F324E96EEA50F420EA6EB8
:1008B000EE52EF50040B09E0DF50EA6A000FE96ED8
:1008C000030EEA22010EEF6E07D0DF50EA6A000F36
:1008D000E96E030EEA22EF6A60EC60F007C015F0E3
:1008E00008C016F009C017F0DF50040DF3CFE9FF80
:1008F000F4CFEAFF900EE926030EEA2206C0EEFFCF
:1009000015C0EEFF16C0EEFF17C0EEFFDF50156AF0
:10091000C60F146E030E152214C0E6FF15C0E6FFC5
:100920002CEC54F0E552E552E66EDF50EA6A200FF7
:10093000E96E030EEA22E552E750EF6EE66EDF50F5
:10094000EA6A100FE96E030EEA22E552E750EF6EF5
:10095000DF50EA6A300FE96E030EEA22EF6ADF2AFF
:1009600090D7AA9E3F0ECD140009CD6ECF0ECD14A8
:100970002009CD6ECD86CD829D80B09E3F0EB114F4
:100980000009B16ECF0EB1142009B16EB186B182EB
:10099000A082DF040301D06FE552E552E7CFD9FF13
:1009A0001200D9CFE6FFE1CFD9FFE6520301D02BE9
:1009B000080ED05D02E3D06B72D9E5C4E9FFE6C44E
:1009C000EAFF100EE926000EEA22E9CF14F0EACF82
:1009D00015F00301D051070DE950F324E96EEA50F8
:1009E000F420EA6EEFCFDFFF020EDF5C06E0030EBD
:1009F000DF5C03E0040EDF5C0CE1D051EA6A000F1B
:100A0000E96E030EEA22EF5004E0D0C3E6FF35D8CA
:100A1000E552E5C4E9FFE6C4EAFF100EE926000E40
:100A2000EA22E9CF14F0EACF15F0080E0301D02531
:100A3000070DE950F324E96EEA50F420EA6EEFCF97
:100A4000DFFF020EDF5C06E0030EDF5C03E0040E56
:100A5000DF5C0EE1080ED025EA6A000FE96E030E96
:100A6000EA22EF5005E0080ED025E66E6DD8E5527B
:100A7000E552E552E7CFD9FF1200D9CFE6FFE1CF2B
:100A8000D9FF020EE126FE0EDB50EA6A100FE96E76
:100A9000030EEA22EF50166E176A130E086E096AEB
:100AA00016C00DF017C00EF0C9EC5FF006C014F0D0
:100AB00007C015F0100E14260E0E1522FF0ED8805A
:100AC0001456155614C0DEFF15C0DDFFDECF14F03E
:100AD000DDCF15F015C014F0156A1450CF6EDECFBF
:100AE00014F0DDCF15F01450CE6EE5C4E9FFE6C476
:100AF000EAFF100EE926000EEA22E9CF14F0EACF51
:100B000015F0FE0EDB50070DE950F324E96EEA50B4
:100B1000F420EA6EEE52EF50200B02E0000E01D0FE
:100B2000010EE66EFE0EDBCFE6FFB8EC4DF0E552AF
:100B3000E552CD80020EE15C02E2E16AE552E16E2F
:100B4000E552E7CFD9FF1200D9CFE6FFE1CFD9FFB9
:100B5000020EE126FE0EDB50EA6A100FE96E030E6C
:100B6000EA22EF50166E176A130E086E096A16C055
:100B70000DF017C00EF0C9EC5FF006C014F007C00E
:100B800015F0100E14260E0E1522FF0ED8801456E6
:100B9000155614C0DEFF15C0DDFFDECF14F0DDCF2B
:100BA00015F015C014F0156A1450B36EDECF14F0B2
:100BB000DDCF15F01450B26EE5C4E9FFE6C4EAFFDC
:100BC000100EE926000EEA22E9CF14F0EACF15F064
:100BD000FE0EDB50070DE950F324E96EEA50F420D5
:100BE000EA6EEE52EF50200B02E0000E01D0010E33
:100BF000E66EFE0EDBCFE6FFB8EC4DF0E552E552B7
:100C0000B180020EE15C02E2E16AE552E16EE5527A
:100C1000E7CFD9FF1200CD90E5C4E9FFE6C4EAFFB3
:100C2000100EE926000EEA22E9CF14F0EACF15F003
:100C30000301D051070DE950F324E96EEA50F42086
:100C4000EA6EEE52EF50200BE66ED0C3E6FFB8EC32
:100C50004DF0E552E5521200B190E5C4E9FFE6C45B
:100C6000EAFF100EE926000EEA22E9CF14F0EACFDF
:100C700015F0080E0301D025070DE950F324E96EA5
:100C8000EA50F420EA6EEE52EF50200BE66E080EAA
:100C9000D025E66EB8EC4DF0E552E5521200D9CF02
:100CA000E6FFE1CFD9FF040EE126020EDB6A100E4B
:100CB000F36E020EDBCFF4FFF350F45C02E34DEF72
:100CC0000FF0E5C4E9FFE6C4EAFF100EE926000EC6
:100CD000EA22E9CF14F0EACF15F0020EDB50070D3F
:100CE000E950F324E96EEA50F420EA6EEF50040A6A
:100CF00002E120EF0BF0070A01E12DD3010A02E027
:100D0000DDEF0EF0E5C4E9FFE6C4EAFF100EE926C8
:100D1000000EEA22E9CF17F0EACF18F0020EDB50FE
:100D2000070DE950F324E96EEA50F420EA6E020E52
:100D3000E926000EEA22EF50FE0BE842166EE5C4EB
:100D4000E9FFE6C4EAFF100EE926000EEA22EACF28
:100D500015F0020EDB50070DE950F324E96EEA505E
:100D6000F420EA6E020EE926000EEA22EE52EF505F
:100D7000FE0BE8421624DF6E010EDB6A020EDB502A
:100D8000EA6A000FE96E030EEA22EF50020A73E0EE
:100D9000010A02E0DDEF0EF0020EDB50EA6A100FEE
:100DA000E96E030EEA22EFCF14F0E5C4E9FFE6C4D2
:100DB000EAFF100EE926000EEA22EACF16F0020E34
:100DC000DB50070DE950F324E96EEA50F420EA6E97
:100DD000020EE926000EEA22EF50145C1FE1E5C482
:100DE000E9FFE6C4EAFF100EE926000EEA22E9CF89
:100DF00014F0EACF15F0020EDB50070DE950F32492
:100E0000E96EEA50F420EA6EEE52EF50400BE66EC7
:100E1000020EDB50040DF350080F1FD0E5C4E9FFAC
:100E2000E6C4EAFF100EE926000EEA22E9CF14F02C
:100E3000EACF15F0020EDB50070DE950F324E96EFE
:100E4000EA50F420EA6EEE52EF50400BE66E020ECE
:100E5000DB50040DF350080F020FE66EA6EC1EF0F7
:100E6000E552E552020EDB50EA6A000FE96E030E0E
:100E7000EA22020EEF6E020EDB50EA6A200FE96EE4
:100E8000030EEA22EFCF14F0020EDB50EA6A100FD5
:100E9000E96E030EEA22EF50D880145401E3D2D059
:100EA000020EDB50EA6A100FE96E030EEA22EFCF62
:100EB00014F0DF50145C03E2DE52010EDD6E020E10
:100EC000DB50EA6A300FE96E030EEA22EF5039E098
:100ED000020EDB50EA6A300FE96E030EEA22EFCF12
:100EE00015F0020EDB50EA6A100FE96E030EEA22DB
:100EF000EF501524146E020EDB50EA6A100FE96EF3
:100F0000030EEA22EF50145C09E2020EDB50EA6A9B
:100F1000100FE96E030EEA22EF683FD0020EDB509D
:100F2000EA6A300FE96E030EEA22EFCF14F0020EE8
:100F3000DB50EA6A100FE96E030EEA221450EF2626
:100F40002CD0020EDB50EA6A500FE96E030EEA2243
:100F5000EF06020EDB50EA6A500FE96E030EEA223A
:100F6000EF501BE1020EDB50EA6A100FE96E030E30
:100F7000EA22EF2A020EDB50EA6A400FE96E030E06
:100F8000EA22EF50E66E020EDB50EA6A500FE96E7D
:100F9000030EEA22E552E750EF6E020EDB50EA6ADA
:100FA000100FE96E030EEA22EFCF14F0020EDB50B1
:100FB000EA6A200FE96E030EEA22EF50D88014543B
:100FC00013E2020EDB50EA6A200FE96E030EEA22FA
:100FD000EF50E66E020EDB50EA6A100FE96E030E68
:100FE000EA22E552E750EF6E020EDB50EA6A100F7C
:100FF000E96E030EEA22EFCF14F0DF50145C01E239
:101000000ED1010EDB5001E10AD1E5C4E9FFE6C4CF
:10101000EAFF100EE926000EEA22E9CF14F0EACF2B
:1010200015F0020EDB50070DE950F324E96EEA508B
:10103000F420EA6EEE52EF50400B02E0000EE3D0D7
:10104000010EE1D0020EDB50EA6A200FE96E030EBA
:10105000EA22EFCF14F0020EDB50EA6A100FE96EBD
:10106000030EEA22EF50145C01E3D9D0020EDB50EC
:10107000EA6A100FE96E030EEA22EFCF14F0DF5098
:10108000D880145403E2DE52010EDD6E020EDB50F6
:10109000EA6A300FE96E030EEA22EF503AE0020EE0
:1010A000DB50EA6A100FE96E030EEA22EFCF15F06B
:1010B000020EDB50EA6A300FE96E030EEA22EF50AF
:1010C000155C146E020EDB50EA6A100FE96E030E17
:1010D000EA22EF50D880145409E2020EDB50EA6A8B
:1010E000100FE96E030EEA22EF6A3FD0020EDB50CA
:1010F000EA6A300FE96E030EEA22EFCF14F0020E17
:10110000DB50EA6A100FE96E030EEA221450EF5E1C
:101110002CD0020EDB50EA6A500FE96E030EEA2271
:10112000EF06020EDB50EA6A500FE96E030EEA2268
:10113000EF501BE1020EDB50EA6A100FE96E030E5E
:10114000EA22EF06020EDB50EA6A400FE96E030E58
:10115000EA22EF50E66E020EDB50EA6A500FE96EAB
:10116000030EEA22E552E750EF6E020EDB50EA6A08
:10117000100FE96E030EEA22EFCF14F0020EDB50DF
:10118000EA6A200FE96E030EEA22EF50145C13E2C4
:10119000020EDB50EA6A200FE96E030EEA22EF50DE
:1011A000E66E020EDB50EA6A100FE96E030EEA22C9
:1011B000E552E750EF6E020EDB50EA6A100FE96E5F
:1011C000030EEA22EFCF14F0DF50D880145427E347
:1011D000010EDB5024E0E5C4E9FFE6C4EAFF100E8F
:1011E000E926000EEA22E9CF14F0EACF15F0020E4C
:1011F000DB50070DE950F324E96EEA50F420EA6E63
:10120000EE52EF50400BE66E020EDB50040DF35031
:10121000080F010FE66EA6EC1EF0E552E552020E35
:10122000DB50EA6A200FE96E030EEA22EFCF14F0DA
:10123000020EDB50EA6A100FE96E030EEA22EF504D
:10124000145C02E0DDEF0EF0020EDB50EA6A000FE4
:10125000E96E030EEA22010EEF6E60EC60F007C04B
:1012600015F008C016F009C017F0020EDB50040D8F
:10127000F3CFE9FFF4CFEAFF900EE926030EEA224E
:1012800006C0EEFF15C0EEFF16C0EEFF17C0EEFF62
:10129000020EDB50EA6A100FE96E030EEA22EFCF6E
:1012A00014F0E5C4E9FFE6C4EAFF100EE926000EDB
:1012B000EA22EACF16F0020EDB50070DE950F324C4
:1012C000E96EEA50F420EA6E020EE926000EEA22E8
:1012D000EF50145C1BE1E5C4E9FFE6C4EAFF100E21
:1012E000E926000EEA22E9CF14F0EACF15F0020E4B
:1012F000DB50070DE950F324E96EEA50F420EA6E62
:10130000EE52EF50400B01E037D138D1E5C4E9FF90
:10131000E6C4EAFF100EE926000EEA22E9CF14F037
:10132000EACF15F0020EDB50070DE950F324E96E09
:10133000EA50F420EA6EEE52EF50400B02E0000E4D
:1013400001D0010EE66E020EDB50040DF350080FC3
:10135000020FBFEF0EF0020EDB50EA6A000FE96EDB
:10136000030EEA22EF50020A1AE0010A02E0DDEF62
:101370000EF0020EDBCFE6FF66EC40F0E552020E07
:10138000DB50EA6A000FE96E030EEA22020EEF6EEE
:10139000DB50EA6A800FE96E030EEA22EF6A020E62
:1013A000DB50EA6A800FE96E030EEA22EF2A020E92
:1013B000DB50EA6A800FE96E030EEA22EF50146EEA
:1013C000156AD890155004E6FF0E145C000E1558EF
:1013D00052E3020EDB50EA6A000FE96E030EEA22C6
:1013E000010EEF6E60EC60F007C015F008C016F05B
:1013F00009C017F0020EDB50040DF3CFE9FFF4CF64
:10140000EAFF900EE926030EEA2206C0EEFF15C0A1
:10141000EEFF16C0EEFF17C0EEFF020EDB50EA6AC9
:10142000200FE96E030EEA22EF50E66E020EDB504B
:10143000EA6A100FE96E030EEA22E552E750EF6EFA
:10144000E5C4E9FFE6C4EAFF100EE926000EEA2231
:10145000E9CF14F0EACF15F0020EDB50070DE9508A
:10146000F324E96EEA50F420EA6EEE52EF50400B9E
:1014700001E082D083D0E5C4E9FFE6C4EAFF100EA4
:10148000E926000EEA22EACF15F0020EDB50070D26
:10149000E950F324E96EEA50F420EA6E020EE926E0
:1014A000000EEA22030EEFCFDBFF020EDB50EA6AEA
:1014B000200FE96E030EEA22EFCF14F0030EDB508B
:1014C000145C5EE1020EDBCFE6FFBAEC43F0E552BE
:1014D000000902E1DDEF0EF0020EDB50EA6A000FB8
:1014E000E96E030EEA22010EEF6E60EC60F007C0B9
:1014F00015F008C016F009C017F0020EDB50040DFD
:10150000F3CFE9FFF4CFEAFF900EE926030EEA22BB
:1015100006C0EEFF15C0EEFF16C0EEFF17C0EEFFCF
:10152000020EDB50EA6A200FE96E030EEA22EF504A
:10153000E66E020EDB50EA6A100FE96E030EEA2235
:10154000E552E750EF6EE5C4E9FFE6C4EAFF100E8E
:10155000E926000EEA22E9CF14F0EACF15F0020ED8
:10156000DB50070DE950F324E96EEA50F420EA6EEF
:10157000EE52EF50400B02E0000E5BD0010E59D04E
:10158000020EDBCFE6FF82EC40F0E552000902E1FB
:10159000DDEF0EF0020EDB50EA6A000FE96E030E7B
:1015A000EA22010EEF6E60EC60F007C015F008C093
:1015B00016F009C017F0020EDB50040DF3CFE9FF5F
:1015C000F4CFEAFF900EE926030EEA2206C0EEFFF2
:1015D00015C0EEFF16C0EEFF17C0EEFF020EDB5087
:1015E000EA6A200FE96E030EEA22EF50E66E020E61
:1015F000DB50EA6A100FE96E030EEA22E552E7506B
:10160000EF6EE5C4E9FFE6C4EAFF100EE926000E1E
:10161000EA22E9CF14F0EACF15F0020EDB50070DF5
:10162000E950F324E96EEA50F420EA6EEE52EF50EE
:10163000400BE66E020EDB50040DF350080F9FD3F3
:10164000020EDB50EA6A000FE96E030EEA22EF5049
:10165000020A01E136D1010A01E0AFD3020EDB50EC
:10166000EA6A100FE96E030EEA22EFCF14F0E5C428
:10167000E9FFE6C4EAFF100EE926000EEA22EACFEF
:1016800016F0020EDB50070DE950F324E96EEA5024
:10169000F420EA6E020EE926000EEA22EE52EF5026
:1016A000145C23E1E5C4E9FFE6C4EAFF100EE92675
:1016B000000EEA22E9CF14F0EACF15F0020EDB505B
:1016C000070DE950F324E96EEA50F420EA6EEE5279
:1016D000EF50400BE66E020EDB50040DF350080F86
:1016E000E66EA6EC1EF0E552E552020EDB50EA6A09
:1016F000100FE96E030EEA22EFCF14F0E5C4E9FF04
:10170000E6C4EAFF100EE926000EEA22EACF16F040
:10171000020EDB50070DE950F324E96EEA50F42085
:10172000EA6E020EE926000EEA22020EE926000EFB
:10173000EA22EF50145C24E1E5C4E9FFE6C4EAFFC5
:10174000100EE926000EEA22E9CF14F0EACF15F0D8
:10175000020EDB50070DE950F324E96EEA50F42045
:10176000EA6EEE52EF50400BE66E020EDB50040DB7
:10177000F350080F010FE66EA6EC1EF0E552E5529D
:10178000020EDB50EA6A100FE96E030EEA22EFCF79
:1017900014F0E5C4E9FFE6C4EAFF100EE926000EE6
:1017A000EA22EACF16F0020EDB50070DE950F324CF
:1017B000E96EEA50F420EA6E020EE926000EEA22F3
:1017C000030EE926000EEA22EF50145C24E1E5C482
:1017D000E9FFE6C4EAFF100EE926000EEA22E9CF8F
:1017E00014F0EACF15F0020EDB50070DE950F32498
:1017F000E96EEA50F420EA6EEE52EF50400BE66ECE
:10180000020EDB50040DF350080F020FE66EA6EC3B
:101810001EF0E552E552020EDB50EA6A100FE96E47
:10182000030EEA22EFCF14F0E5C4E9FFE6C4EAFFB5
:10183000100EE926000EEA22E9CF15F0EACF16F0E5
:10184000020EDB50070DE950F324E96EEA50F42054
:10185000EA6E020EE926000EEA22040EE926000EC8
:10186000EA22EF50145C24E1E5C4E9FFE6C4EAFF94
:10187000100EE926000EEA22E9CF14F0EACF15F0A7
:10188000020EDB50070DE950F324E96EEA50F42014
:10189000EA6EEE52EF50400BE66E020EDB50040D86
:1018A000F350080F030FE66EA6EC1EF0E552E5526A
:1018B000020EDB50EA6A000FE96E030EEA22020E06
:1018C000EF6E020EDB50EA6A200FE96E030EEA2289
:1018D000EFCF14F0020EDB50EA6A100FE96E030E30
:1018E000EA22EF50D88014545EE2020EDB50EA6A1E
:1018F000300FE96E030EEA22EF5013E0020EDB50C8
:10190000EA6A300FE96E030EEA22EFCF14F0020EFE
:10191000DB50EA6A100FE96E030EEA221450EF263C
:101920002CD0020EDB50EA6A500FE96E030EEA2259
:10193000EF06020EDB50EA6A500FE96E030EEA2250
:10194000EF501BE1020EDB50EA6A100FE96E030E46
:10195000EA22EF2A020EDB50EA6A400FE96E030E1C
:10196000EA22EF50E66E020EDB50EA6A500FE96E93
:10197000030EEA22E552E750EF6E020EDB50EA6AF0
:10198000100FE96E030EEA22EFCF14F0020EDB50C7
:10199000EA6A200FE96E030EEA22EF50D880145451
:1019A00001E382D06ED0020EDB50EA6A200FE96EAE
:1019B000030EEA22EFCF14F0020EDB50EA6A100F9A
:1019C000E96E030EEA22EF50145C6EE2020EDB5069
:1019D000EA6A300FE96E030EEA22EF5013E0020EBE
:1019E000DB50EA6A300FE96E030EEA22EFCF14F003
:1019F000020EDB50EA6A100FE96E030EEA22145061
:101A0000EF5E2CD0020EDB50EA6A500FE96E030E37
:101A1000EA22EF06020EDB50EA6A500FE96E030E6F
:101A2000EA22EF501BE1020EDB50EA6A100FE96E6A
:101A3000030EEA22EF06020EDB50EA6A400FE96E5F
:101A4000030EEA22EF50E66E020EDB50EA6A500FF8
:101A5000E96E030EEA22E552E750EF6E020EDB500C
:101A6000EA6A100FE96E030EEA22EFCF14F0020EBD
:101A7000DB50EA6A200FE96E030EEA22EF50145C95
:101A800013E2020EDB50EA6A200FE96E030EEA222F
:101A9000EF50E66E020EDB50EA6A100FE96E030E9D
:101AA000EA22E552E750EF6E020EDB50EA6A200FA1
:101AB000E96E030EEA22EFCF14F0020EDB50EA6A61
:101AC000100FE96E030EEA22EF50145C01E075D1AD
:101AD000020EDB50EA6A000FE96E030EEA22010EE5
:101AE000EF6E60EC60F007C015F008C016F009C09A
:101AF00017F0020EDB50040DF3CFE9FFF4CFEAFF3D
:101B0000900EE926030EEA2206C0EEFF15C0EEFF96
:101B100016C0EEFF17C0EEFF020EDB50EA6A100F90
:101B2000E96E030EEA22EFCF14F0E5C4E9FFE6C444
:101B3000EAFF100EE926000EEA22EACF16F0020EA6
:101B4000DB50070DE950F324E96EEA50F420EA6E09
:101B5000020EE926000EEA22EE52EF50145C27E155
:101B6000E5C4E9FFE6C4EAFF100EE926000EEA220A
:101B7000E9CF14F0EACF15F0020EDB50070DE95063
:101B8000F324E96EEA50F420EA6EEE52EF50400B77
:101B900002E0000E01D0010EE66E020EDB50040DD5
:101BA000F350080FE66EA6EC1EF0E552E552020E69
:101BB000DB50EA6A100FE96E030EEA22EFCF14F051
:101BC000E5C4E9FFE6C4EAFF100EE926000EEA22AA
:101BD000EACF16F0020EDB50070DE950F324E96E50
:101BE000EA50F420EA6E020EE926000EEA22020E06
:101BF000E926000EEA22EF50145C28E1E5C4E9FF73
:101C0000E6C4EAFF100EE926000EEA22E9CF14F03E
:101C1000EACF15F0020EDB50070DE950F324E96E10
:101C2000EA50F420EA6EEE52EF50400B02E0000E54
:101C300001D0010EE66E020EDB50040DF350080FCA
:101C4000010FE66EA6EC1EF0E552E552020EDB50E7
:101C5000EA6A100FE96E030EEA22EFCF14F0E5C432
:101C6000E9FFE6C4EAFF100EE926000EEA22EACFF9
:101C700016F0020EDB50070DE950F324E96EEA502E
:101C8000F420EA6E020EE926000EEA22030EE9268F
:101C9000000EEA22EF50145C28E1E5C4E9FFE6C437
:101CA000EAFF100EE926000EEA22E9CF14F0EACF8F
:101CB00015F0020EDB50070DE950F324E96EEA50EF
:101CC000F420EA6EEE52EF50400B02E0000E01D01D
:101CD000010EE66E020EDB50040DF350080F020FEA
:101CE000E66EA6EC1EF0E552E552020EDB50EA6A03
:101CF000100FE96E030EEA22EFCF14F0E5C4E9FFFE
:101D0000E6C4EAFF100EE926000EEA22EACF16F03A
:101D1000020EDB50070DE950F324E96EEA50F4207F
:101D2000EA6E020EE926000EEA22040EE926000EF3
:101D3000EA22EF50145C28E1E5C4E9FFE6C4EAFFBB
:101D4000100EE926000EEA22E9CF14F0EACF15F0D2
:101D5000020EDB50070DE950F324E96EEA50F4203F
:101D6000EA6EEE52EF50400B02E0000E01D0010E81
:101D7000E66E020EDB50040DF350080F030FE66E03
:101D8000A6EC1EF0E552E552020EDB50EA6A100F97
:101D9000E96E030EEA22EF50E66E020EDB50156A82
:101DA000C60F146E030E152214C0E6FF15C0E6FF21
:101DB00056EC54F0E552E552E552020EDB50EA6A69
:101DC000000FE96E030EEA22EF5063E0010A61E1C1
:101DD000E5C4E9FFE6C4EAFF100EE926000EEA2298
:101DE000E9CF14F0EACF15F0020EDB50070DE950F1
:101DF000F324E96EEA50F420EA6EEE52EF50020B43
:101E000048E0020EDB50040DF3CFE9FFF4CFEAFF08
:101E1000900EE926030EEA22EECF18F0EECF19F06D
:101E2000EECF1AF0EFCF1BF018C0E6FF19C0E6FFA7
:101E30001AC0E6FF1BC0E6FF60EC60F0E552E7CF9A
:101E40001BF0E552E7CF1AF0E552E7CF19F0E55263
:101E5000E7CF18F000011850065C146E19500758AF
:101E6000156E1A500858166E1B500958176ED880F8
:101E7000240E1454F40E1554000E1654000E17546C
:101E800008E2020EDB50EA6A000FE96E030EEA2256
:101E9000EF6A020EDB2A57EF06F0040EE15C02E265
:101EA000E16AE552E16EE552E7CFD9FF1200D9CFE2
:101EB000E6FFE1CFD9FFFD0EDB50010A19E0030A6E
:101EC0003CE1E5C4E9FFE6C4EAFF100EE926000E96
:101ED000EA22FE0EDB50070DE950F324E96EEA50CA
:101EE000F420EA6E020EE926000EEA22030E16D056
:101EF000E5C4E9FFE6C4EAFF100EE926000EEA2277
:101F0000FE0EDB50070DE950F324E96EEA50F42091
:101F1000EA6E020EE926000EEA22020EE926000E03
:101F2000EA22EF50E66EFE0EDB50EA6A300FE96EF1
:101F3000030EEA22E552E750EF6EFE0EDB50EA6A2E
:101F4000300FE96E030EEA22EF50146E156A153455
:101F500017E21450EA08000E155412E2EA0E146E4D
:101F6000FE0EDB50EA6A300FE96E030EEA221450CF
:101F7000EF5EFE0EDB50EA6A400FE96E030E2BD0D7
:101F8000FE0EDB50EA6A300FE96E030EEA22EF50D4
:101F9000146E156AEA0ED8801456000E1556010EFE
:101FA0001426000E1522FE0EDB50EA6A400FE96E81
:101FB000030EEA2214C0EFFFFE0EDB50EA6A500F58
:101FC000E96E030EEA22010EEF6EFE0EDB50EA6AA6
:101FD000300FE96E030EEA22EF6AFE0EDB50EA6A6A
:101FE000000FE96E030EEA22030EEF6EE552E7CF13
:101FF000D9FF1200D9CFE6FFE1CFD9FFFD0EDB50AC
:10200000010A0EE0030A19E1FE0EEA6ADB34FE0B58
:10201000EA36E96E600EE926030EEA22EE6A0CD07B
:10202000FE0EEA6ADB34FE0BEA36E96E600EE92644
:10203000030EEA220C0EEE6EED6AFE0EDB50EA6A2B
:10204000000FE96E030EEA22030EEF6EFE0EDB5068
:10205000EA6A800FE96E030EEA22EF6AE552E7CFE3
:10206000D9FF1200D9CFE6FFE1CFD9FFE5C4E9FFE0
:10207000E6C4EAFF030EEB50E66EFE0EDB50EA6AA2
:10208000300FE96E030EEA22E552E750EF6EFE0EC6
:10209000DB50EA6A300FE96E030EEA22EF50146E4D
:1020A000156A153417E21450EA08000E155412E2AE
:1020B000EA0E146EFE0EDB50EA6A300FE96E030E74
:1020C000EA221450EF5EFE0EDB50EA6A400FE96E22
:1020D000030E2BD0FE0EDB50EA6A300FE96E030EC2
:1020E000EA22EF50146E156AEA0ED8801456000EDC
:1020F0001556010E1426000E1522FE0EDB50EA6A5C
:10210000400FE96E030EEA2214C0EFFFFE0EDB5013
:10211000EA6A500FE96E030EEA22010EEF6EFE0E20
:10212000DB50EA6A300FE96E030EEA22EF6AFE0E18
:10213000DB50EA6A000FE96E030EEA22030EEF6E2F
:10214000E552E7CFD9FF1200D9CFE6FFE1CFD9FFA3
:10215000FD0EDB50010A18E0030A63E1E5C4E9FF64
:10216000E6C4EAFF100EE926000EEA22FE0EDB505E
:10217000070DE950F324E96EEA50F420EA6EEE52BE
:10218000EF50010B2CE115D0E5C4E9FFE6C4EAFFEE
:10219000100EE926000EEA22FE0EDB50070DE95074
:1021A000F324E96EEA50F420EA6EEE52EF50010B90
:1021B00016E0E5C4E9FFE6C4EAFF100EE926000ECA
:1021C000EA22FE0EDB50070DE950F324E96EEA50D7
:1021D000F420EA6E020EE926000EEA2216D0E5C4CB
:1021E000E9FFE6C4EAFF100EE926000EEA22FE0E21
:1021F000DB50070DE950F324E96EEA50F420EA6E53
:10220000020EE926000EEA22EE52EF50E66EFE0EB6
:10221000DB50EA6A200FE96E030EEA22E552E7502E
:10222000EF6EE552E7CFD9FF1200D9CFE6FFE1CF3D
:10223000D9FFFD0EDB50010A18E0030A63E1E5C493
:10224000E9FFE6C4EAFF100EE926000EEA22FE0EC0
:10225000DB50070DE950F324E96EEA50F420EA6EF2
:10226000EE52EF50010B2DE115D0E5C4E9FFE6C4B5
:10227000EAFF100EE926000EEA22FE0EDB50070DE3
:10228000E950F324E96EEA50F420EA6EEE52EF5082
:10229000010B17E0E5C4E9FFE6C4EAFF100EE926EA
:1022A000000EEA22FE0EDB50070DE950F324E96E22
:1022B000EA50F420EA6E020EE926000EEA22EE52FF
:1022C00015D0E5C4E9FFE6C4EAFF100EE926000ECA
:1022D000EA22FE0EDB50070DE950F324E96EEA50C6
:1022E000F420EA6E020EE926000EEA22EF50E66EB6
:1022F000FE0EDB50EA6A200FE96E030EEA22E55279
:10230000E750EF6EE552E7CFD9FF1200D9CFE6FFD5
:10231000E1CFD9FFFD0EDB50030A66E0010A33E08E
:10232000030A1AE0010A01E09ED0E5C4E9FFE6C411
:10233000EAFF100EE926000EEA22FE0EDB50070D22
:10234000E950F324E96EEA50F420EA6E020EE92621
:10235000000EEA22EE527BD0E5C4E9FFE6C4EAFFB4
:10236000100EE926000EEA22FE0EDB50070DE950A2
:10237000F324E96EEA50F420EA6E020EE926000E1C
:10238000EA22020E61D0E5C4E9FFE6C4EAFF100EBE
:10239000E926000EEA22FE0EDB50070DE950F32479
:1023A000E96EEA50F420EA6E020EE926000EEA22F7
:1023B000EFCF14F0030E145C56E3E5C4E9FFE6C466
:1023C000EAFF100EE926000EEA22FE0EDB50070D92
:1023D000E950F324E96EEA50F420EA6E020EE92691
:1023E000000EEA22030E30D0E5C4E9FFE6C4EAFF9E
:1023F000100EE926000EEA22FE0EDB50070DE95012
:10240000F324E96EEA50F420EA6E020EE926000E8B
:10241000EA22EFCF14F0040E145C25E3E5C4E9FFD3
:10242000E6C4EAFF100EE926000EEA22FE0EDB509B
:10243000070DE950F324E96EEA50F420EA6E020E2B
:10244000E926000EEA22040EE926000EEA22EF50E9
:10245000E66EFE0EDB50EA6A200FE96E030EEA22FA
:10246000E552E750EF6EE552E7CFD9FF1200D9CF22
:10247000E6FFE1CFD9FFFE0EDB50EA6A200FE96EDE
:10248000030EEA22FD0EDBCFEFFFFE0EDB50EA6A01
:10249000100FE96E030EEA22FD0EDBCFEFFFE552CF
:1024A000E7CFD9FF1200CDB0000CB1B0000C010C89
:1024B00068EF1FF0D9CFE6FFE1CFD9FFE652FE0E5D
:1024C000DB50100D0401E751F324F66EE851F420BF
:1024D000F76EF6CF14F0F7CF15F014C0E6FF15C075
:1024E000E6FF95EC52F0E552E552DF6ED9CFE9FFF9
:1024F000DACFEAFFEF50800B09E1D9CFE9FFDACF5D
:10250000EAFFEF50200B02E1010E01D0000EE55270
:10251000E552E7CFD9FF1200D9CFE6FFE1CFD9FFCF
:10252000E652DF6ADF50146E156AD890155004E643
:10253000FF0E145C000E155819E2E668DF50100D0E
:102540000401E751F324F66EE851F420F76EF6CF5C
:1025500014F0F7CF15F014C0E6FF15C0E6FFA8ECA5
:1025600053F0E552E552E552DF2ADCD78CEC52F00D
:1025700068EC1FF0E552E552E7CFD9FF1200D9CF42
:10258000E6FFE1CFD9FF030EE126DF6A010EDB6A29
:10259000DB50146E156AD890155004E6FF0E145CDB
:1025A000000E155826E2010EDB50100D0401E75114
:1025B000F324F66EE851F420F76EF6CF14F0F7CF5F
:1025C00015F014C0E6FF15C0E6FF95EC52F0E55299
:1025D000E552E76E020EE7CFDBFFD950020FE96E3E
:1025E000DACFEAFFEF50800B01E0DF2A010EDB2A91
:1025F000CFD7DFCF3CFE330EE66E0E0EE66E700ECA
:10260000E66EE66AA0EC55F0E552E552E552E55279
:10261000030EE15C02E2E16AE552E16EE552E7CFCA
:10262000D9FF1200D9CFE6FFE1CFD9FF030EE12693
:10263000DF6ADF50146E156AD890155004E6FF0E5D
:10264000145C000E15585CE2DFCFE6FF33DFE55285
:10265000000954E0DFCFE6FF81EC1BF0E552DE52CB
:10266000F3CFDEFFF4CFDDFFDD52010E020EDBCF34
:1026700015F015C014F0156A14C03CFEFF0EE76E8D
:10268000010EDBCF14F0020EE7501416156A14C0C9
:102690003DFEDFCFE6FF0EEC1CF0E552DE52F3CF3D
:1026A000DEFFF4CFDDFFDD52010E020EDBCF15F0B1
:1026B00015C014F0156A14C03EFEFF0EE76E010E41
:1026C000DBCF14F0020EE7501416156A14C03FFE5B
:1026D000DFCFE6FF36EC1DF0E5520E01406F330E02
:1026E000E66E0E0EE66EF20EE66EE66AA0EC55F0B1
:1026F000E552E552E552E5520009F1E0DF2A99D7AB
:10270000030EE15C02E2E16AE552E16EE552E7CFD9
:10271000D9FF1200D9CFE6FFE1CFD9FF030EE126A2
:10272000FE0EDBCFE6FF2CEC1DF0E552DF6EDFCFB7
:10273000E6FFC0DEE552000906E1070EE66EE66A36
:102740009FEC27F054D0DFCFE6FF81EC1BF0E55281
:10275000DE52F3CFDEFFF4CFDDFFDD52010EDBCF23
:1027600014F0020EDBCF15F015C014F0156A14C07A
:102770003CFEFF0EE76E010EDBCF14F0020EDBCF46
:1027800015F0E7501416156A14C03DFEDFCFE6FFC2
:102790000EEC1CF0E552DE52F3CFDEFFF4CFDDFF8E
:1027A000DD52010EDBCF14F0020EDBCF15F015C0A9
:1027B00014F0156A14C03EFEFF0EE76E010EDBCF6B
:1027C00014F0020EDBCF15F0E7501416156A14C092
:1027D0003FFEFE0EDBCF40FE330EE66E0E0EE66EC3
:1027E000F20EE66EE66AA0EC55F0E552E552E552CF
:1027F000E552030EE15C02E2E16AE552E16EE55268
:10280000E7CFD9FF1200D9CFE6FFE1CFD9FF020E03
:10281000E126DF6A010EDB6ADB50146E156AD89080
:10282000155004E6FF0E145C000E15580BE2010E65
:10283000DBCFE6FF3FDEE552000901E0DF2A010EB3
:10284000DB2AEAD7DFCF3CFE330EE66E0E0EE66ED5
:10285000740EE66EE66AA0EC55F0E552E552E552DC
:10286000E552020EE15C02E2E16AE552E16EE552F8
:10287000E7CFD9FF1200D9CFE6FFE1CFD9FF070E8E
:10288000E126FB0EDBCFE6FFFC0EDBCFE6FFFD0E05
:10289000DBCFE6FFFE0EDBCFE6FFAFDAE552E55217
:1028A000E552E552E76E030EE7CFDBFFDB50FF0892
:1028B00001E1ABD0E66A030EDBCFE6FF7CEC19F05A
:1028C000E552E552DE52F3CFDEFFF4CFDDFFDD52FD
:1028D000010EDBCF14F0020EDBCF15F00001800EED
:1028E000151411E0010EDBCF14F0020EDBCF15F052
:1028F000146C151E000E152214C0E6FF15C0E6FF6D
:102900009FEC27F080D0010EDB50DF6E010EDF5C04
:1029100001E27BD0DF04146E480E145C76E2070EF1
:10292000DF14E76E040EE7CFDBFFDF50E840E8403E
:10293000E8401F0BE76E050EE7CFDBFF010EF36EDD
:10294000040EDB5004E0D890F336E806FCE1F350C7
:10295000166EF3CFE6FF050EDB50156AD80F146E26
:10296000030E152214C0E6FF15C0E6FF2CEC54F050
:10297000E552E552E552E7CF16F01614E76E060E63
:10298000E7CFDBFFFD0EDBCF14F0FE0EDBCF15F043
:1029900015C014F0156A14C03AFEFF0EE76EFD0E66
:1029A000DBCF14F0FE0EDBCF15F0E7501416156ADE
:1029B00014C03BFEFB0EDBCF14F0FC0EDBCF15F09A
:1029C00015C014F0156A14C03CFEFF0EE76EFB0E36
:1029D000DBCF14F0FC0EDBCF15F0E7501416156AB0
:1029E00014C03DFE060EDB5003E00E01930E02D034
:1029F0000E01940E396F330EE66E0E0EE66EE6682B
:102A00007EEC57F0E552E552E552070EE15C02E23A
:102A1000E16AE552E16EE552E7CFD9FF1200D9CF66
:102A2000E6FFE1CFD9FFE652FB0EDBCFE6FFFC0E5F
:102A3000DBCFE6FFFD0EDBCFE6FFFE0EDBCFE6FFD2
:102A4000DCD9E552E552E552E552DF6EFF0EDF5C60
:102A500002E1060E04D0DFCFE6FF06D8E552E552CC
:102A6000E552E7CFD9FF1200D9CFE6FFE1CFD9FF7A
:102A7000E652FE0EDBCFE6FF1DDDE552000901E167
:102A800094D0E668FE0EDB50100D0401E751F324EC
:102A9000F66EE851F420F76EF6CF14F0F7CF15F08C
:102AA00014C0E6FF15C0E6FFA8EC53F0E552E5526E
:102AB000E552FE0EDB50100D0401E751F324F66ED3
:102AC000E851F420F76EF6CF14F0F7CF15F014C0EC
:102AD000E6FF15C0E6FF95EC52F0E552E552DF6ED9
:102AE000D9CFE9FFDACFEAFFEF50100B5AE0FE0E24
:102AF000DB50100D0401E751F324F66EE851F42089
:102B0000F76EF62A000EF722F6CF14F0F7CF15F085
:102B100014C0E6FF15C0E6FF95EC52F0E552E55211
:102B2000E76EFE0EE7CFDBFFDB50100D0401E7512F
:102B3000F324F66EE851F420F76EF6CF14F0F7CFD9
:102B400015F014C0E6FF15C0E6FF95EC52F0E55213
:102B5000E552DF6EFE0EDB50146E156AD8901550EC
:102B600004E6FF0E145C000E155802E3060E1ED09C
:102B7000E668FE0EDB50100D0401E751F324F66EFB
:102B8000E851F420F76EF6CF14F0F7CF15F014C02B
:102B9000E6FF15C0E6FFA8EC53F0E552E552E5521A
:102BA0009FD78CEC52F068EC1FF0000EE552E55216
:102BB000E7CFD9FF1200D9CFE6FFE1CFD9FF040E4E
:102BC000E126FB0EDBCFE6FFFC0EDBCFE6FFFD0EC2
:102BD000DBCFE6FFFE0EDBCFE6FF0FD9E552E55275
:102BE000E552E552DF6EFF0EDF5C01E0E5D0DE521C
:102BF000010EDD6EDF6ADF50146E156AD890155035
:102C000004E6FF0E145C000E155801E3D0D0DF502F
:102C1000100D0401E751F324F66EE851F420F76E2D
:102C2000F6CF14F0F7CF15F014C0E6FF15C0E6FF9D
:102C300095EC52F0E552E552E76E020EE7CFDBFF6E
:102C4000D950020FE96EDACFEAFFEF50800B01E1B5
:102C5000ACD0FD0EDBCFE6FFFE0EDBCFE6FFDF5094
:102C6000100D0401E751F324F66EE851F420F76EDD
:102C7000020EF626000EF722F6CF14F0F7CF15F06D
:102C800014C0E6FF15C0E6FFBEEC53F0E552E55276
:102C9000E552E552FB0EDBCFE6FFFC0EDBCFE6FF95
:102CA000DF50100D0401E751F324F66EE851F420D3
:102CB000F76E020EF626000EF722020EF626000E22
:102CC000F722F6CF14F0F7CF15F014C0E6FF15C0C9
:102CD000E6FFBEEC53F0E552E552E552E552020E36
:102CE000DB6AF80EDB50146ED950020FE96EDACFB2
:102CF000EAFF1450010BF36EF346F346F346F34636
:102D0000F346F346BF0EEF14F310EF6E020EDBCF67
:102D1000E6FFDF50100D0401E751F324F66EE85191
:102D2000F420F76EF6CF14F0F7CF15F014C0E6FFDD
:102D300015C0E6FFA8EC53F0E552E552E552030E4C
:102D4000DB6A0A0EF36E030EDBCFF4FFF350F45C84
:102D500025E2E66ADF50100D0401E751F324F66E18
:102D6000E851F420F76E060EF626000EF722F6CF95
:102D700016F0F7CF17F0030EDB5000011624146E87
:102D8000000E1720156E14C0E6FFE66EA8EC53F097
:102D9000E552E552E552030EDB2AD3D78CEC52F014
:102DA00068EC1FF0010EDB6A02D0DF2A24D7010E87
:102DB000DB5002E0040E15D0F90EDBCFE6FFFA0E71
:102DC000DBCFE6FFDFCFE6FF9CD8E552E552E552C8
:102DD000000902E0060E05D08CEC52F068EC1FF002
:102DE000000E146E040EE15C02E2E16AE552E16E4F
:102DF0001450E552E7CFD9FF1200D9CFE6FFE1CF5B
:102E0000D9FF070EE126FB0EDBCFE6FFFC0EDBCF82
:102E1000E6FFFD0EDBCFE6FFFE0EDBCFE6FF38EC74
:102E20001FF0E552E552E552E552DF6E010EDB6A16
:102E3000140EF36E010EDBCFF4FFF350F45C54E29A
:102E4000DF50140DF3CF14F0F4CF15F0800E1426DC
:102E5000090E1522010EDB500F011424E96E000E3D
:102E60001520EA6E020EEFCFDBFFDB50FF0802E118
:102E7000FF0E3BD0020EDBCFE6FF81EC1BF0E552EC
:102E8000030EF3CFDBFF040EF4CFDBFF020EDBCF2C
:102E9000E6FF0EEC1CF0E552050EF3CFDBFF060E4D
:102EA000F4CFDBFF030EDBCF14F0040EDBCF15F005
:102EB000FD0EDB50141815E1FE0EDB50151811E164
:102EC000050EDBCF16F0060EDBCF17F0FB0EDB5046
:102ED000161807E1FC0EDB50171803E1020EDB5059
:102EE00004D0010EDB2AA4D7FF0E146E070EE15C9E
:102EF00002E2E16AE552E16E1450E552E7CFD9FFF4
:102F00001200D9CFE6FFE1CFD9FF050EE126FE0E74
:102F1000DB50E76E010EE7CFDBFF140EF36EFD0E04
:102F2000DBCFF4FFF350F45C02E3060ED9D10A0EB6
:102F3000F36EFD0EDBCFF4FFF350F45C01E258D1E9
:102F40000A0E146EFD0EDBCFE7FF1450E75EFD0E98
:102F5000E7CFDBFFFE0EDB50100D0401E751F32439
:102F6000F66EE851F420F76EF6CF14F0F7CF15F0B7
:102F700014C0E6FF15C0E6FF95EC52F0E552E552AD
:102F8000DF6ED9CFE9FFDACFEAFFEF50100B22E076
:102F9000FE0EDB50100D0401E751F324F66EE851EC
:102FA000F420F76EF62A000EF722F6CF14F0F7CFD2
:102FB00015F014C0E6FF15C0E6FF95EC52F0E5529F
:102FC000E552E76EFE0EE7CFDBFFDB50FF08AFE117
:102FD000070E86D1FE0EDB28E76E020EE7CFDBFF81
:102FE000DB50146E156AD890155004E6FF0E145C81
:102FF000000E155801E3EDD0020EDB50100D040158
:10300000E751F324F66EE851F420F76EF6CF14F092
:10301000F7CF15F014C0E6FF15C0E6FF95EC52F0AF
:10302000E552E552E76E030EE7CFDBFFD950030F01
:10303000E96EDACFEAFFEF50800B01E1C7D0E66816
:10304000E668020EDB50100D0401E751F324F66E22
:10305000E851F420F76E020EF626000EF722F6CFA6
:1030600014F0F7CF15F014C0E6FF15C0E6FFBEEC74
:1030700053F0E552E552E552E552E668E668020E85
:10308000DB50100D0401E751F324F66EE851F420F3
:10309000F76E020EF626000EF722020EF626000E3E
:1030A000F722F6CF14F0F7CF15F014C0E6FF15C0E5
:1030B000E6FFBEEC53F0E552E552E552E552200E34
:1030C000E66E020EDB50100D0401E751F324F66E9C
:1030D000E851F420F76EF6CF14F0F7CF15F014C0D6
:1030E000E6FF15C0E6FFA8EC53F0E552E552E552C5
:1030F000040EDB6A0A0EF36E040EDBCFF4FFF3500E
:10310000F45C26E2E66A020EDB50100D0401E75182
:10311000F324F66EE851F420F76E060EF626000E44
:10312000F722F6CF16F0F7CF17F0040EDB500001B0
:103130001624146E000E1720156E14C0E6FFE66EFE
:10314000A8EC53F0E552E552E552040EDB2AD2D743
:10315000020EDBCFE6FFFE0EDB50100D0401E7513F
:10316000F324F66EE851F420F76EF62A000EF722EB
:10317000F6CF14F0F7CF15F014C0E6FF15C0E6FF48
:10318000A8EC53F0E552E552E552DF88DFCFE6FFC9
:10319000FE0EDB50100D0401E751F324F66EE851EA
:1031A000F420F76EF6CF14F0F7CF15F014C0E6FF59
:1031B00015C0E6FFA8EC53F0E552E552E552020EC9
:1031C000DB50E76EFE0EE7CFDBFF03D0020EDB2AFB
:1031D00007D7020EDB50146E156AD890155004E61E
:1031E000FF0E145C000E155801E2A1D6040E78D033
:1031F000FC0EDBCFE6FFFE0EDB50100D0401E751A5
:10320000F324F66EE851F420F76E060EF626000E53
:10321000F722F6CF16F0F7CF17F0FD0EDB500001C6
:103220001624146E000E1720156E14C0E6FFE66E0D
:10323000A8EC53F0E552E552E552FE0EDB50100DBE
:103240000401E751F324F66EE851F420F76EF6CF4F
:1032500014F0F7CF15F014C0E6FF15C0E6FF95ECAB
:1032600052F0E552E552DF6ED9CFE9FFDACFEAFF3F
:10327000EF500F0B146EFD0EDB50D880145426E374
:10328000FD0EDB28D9CFE9FFDACFEAFFE8500F0BBC
:10329000F36EF00EEF14F310EF6EDFCFE6FFFE0ECD
:1032A000DB50100D0401E751F324F66EE851F420D1
:1032B000F76EF6CF14F0F7CF15F014C0E6FF15C087
:1032C000E6FFA8EC53F0E552E552E552FC0EDB5068
:1032D00006E1010EDBCFE6FF36EC1EF0E552000EF4
:1032E000146E050EE15C02E2E16AE552E16E1450F3
:1032F000E552E7CFD9FF1200D9CFE6FFE1CFD9FFE2
:10330000E652FE0EDBCFE6FF5AEC12F0E552000962
:1033100052E0140EF36EFD0EDBCFF4FFF350F45CBD
:1033200002E3FA0E79D0FE0EDB50100D0401E751D6
:10333000F324F66EE851F420F76EF6CF14F0F7CFD1
:1033400015F014C0E6FF15C0E6FF95EC52F0E5520B
:10335000E552DF6E0A0EF36EFD0EDBCFF4FFF35085
:10336000F45C4DE3D9CFE9FFDACFEAFFEF50100B61
:1033700002E1FB0E51D0FE0EDB50100D0401E751AF
:10338000F324F66EE851F420F76EF62A000EF722C9
:10339000F6CF14F0F7CF15F014C0E6FF15C0E6FF26
:1033A00095EC52F0E552E552E76EFE0EE7CFDBFFFB
:1033B000DB50FF0802E1F90E2FD0FE0EDB50100D9E
:1033C0000401E751F324F66EE851F420F76EF6CFCE
:1033D00014F0F7CF15F014C0E6FF15C0E6FF95EC2A
:1033E00052F0E552E552DF6E0A0E146EFD0EDBCF91
:1033F000E7FF1450E75EFD0EE7CFDBFFABD7FD0E16
:10340000DB28146ED9CFE9FFDACFEAFFEF500F0BBC
:10341000D880145404E2FB0EF36EF46826D0FE0E3E
:10342000DB50100D0401E751F324F66EE851F4204F
:10343000F76E060EF626000EF722F6CF18F0F7CF3D
:1034400019F0FD0EDB5000011824166E000E192035
:10345000176E16C0E6FFE66E95EC52F0E552E552A7
:10346000146E156AF36E15C0F4FFE552E552E7CF0E
:10347000D9FF1200D9CFE6FFE1CFD9FF020EE12636
:10348000010EDB6AFE0EDBCFE6FF5AEC12F0E552CE
:1034900000093EE0FE0EDB50100D0401E751F3245D
:1034A000F66EE851F420F76EF6CF14F0F7CF15F072
:1034B00014C0E6FF15C0E6FF95EC52F0E552E55268
:1034C000DF6ED9CFE9FFDACFEAFFEF50100B44E00F
:1034D000FE0EDB50100D0401E751F324F66EE851A7
:1034E000F420F76EF62A000EF722F6CF14F0F7CF8D
:1034F00015F014C0E6FF15C0E6FF95EC52F0E5525A
:10350000E552E76EFE0EE7CFDBFFDB50FF0802E17E
:10351000000E33D0FE0EDB50100D0401E751F324F2
:10352000F66EE851F420F76EF6CF14F0F7CF15F0F1
:1035300014C0E6FF15C0E6FF95EC52F0E552E552E7
:10354000DF6E0A0E146E010EDBCFE7FF1450E72684
:10355000010EE7CFDBFFB5D7D9CFE9FFDACFEAFF1E
:10356000EF500F0B146E010EDBCFE7FF1450E72670
:10357000010EE7CFDBFFDB06DB50146E020EE15CD1
:1035800002E2E16AE552E16E1450E552E7CFD9FF5D
:103590001200D9CFE6FFE1CFD9FF030EE126FE0EE0
:1035A000DBCFE6FF5AEC12F0E552000901E19AD0B8
:1035B000010EDB6A140EF36E010EDBCFF4FFF35045
:1035C000F45C01E391D0020EDB6A0A0EF36E020E88
:1035D000DBCFF4FFF350F45C31E2FE0EDB50100D54
:1035E0000401E751F324F66EE851F420F76E060E5D
:1035F000F626000EF722F6CF16F0F7CF17F0020EE0
:10360000DB5000011624146E000E1720156E14C036
:10361000E6FFE66E95EC52F0E552E552E66E010EDD
:10362000DB50EA6AA20FE96E040EEA22E552E75087
:10363000EF6E010EDB2A020EDB2AC7D7FE0EDB502F
:10364000100D0401E751F324F66EE851F420F76EF3
:10365000F6CF14F0F7CF15F014C0E6FF15C0E6FF63
:1036600095EC52F0E552E552DF6ED9CFE9FFDACFA3
:10367000EAFFEF50100B15E1140EF36E010EDBCFD5
:10368000F4FFF350F45C0BE2010EDB50EA6AA20F88
:10369000E96E040EEA22EF6A010EDB2AEDD7000E76
:1036A00024D0FE0EDB50100D0401E751F324F66E1A
:1036B000E851F420F76EF62A000EF722F6CF14F048
:1036C000F7CF15F014C0E6FF15C0E6FF95EC52F0F9
:1036D000E552E552E76EFE0EE7CFDBFFDB50FF0859
:1036E00001E068D7070E01D0000E146E030EE15CF6
:1036F00002E2E16AE552E16E1450E552E7CFD9FFEC
:103700001200D9CFE6FFE1CFD9FF050EE126FE0E6C
:10371000DB50100D0401E751F324F66EE851F4205C
:10372000F76EF6CF14F0F7CF15F014C0E6FF15C012
:10373000E6FF95EC52F0E552E552E76E040EE7CF56
:10374000DBFFD950040FE96EDACFEAFFEF50400BF0
:1037500005E031CEF3FF32CEF4FF56D0FE0EDB5043
:10376000100D0401E751F324F66EE851F420F76ED2
:10377000020EF626000EF722F6CF14F0F7CF15F062
:1037800014C0E6FF15C0E6FF95EC52F0E552E55295
:10379000E66ED950020FE96EDACFEAFFE552E75044
:1037A000EE6EED6AFE0EDB50100D0401E751F324BE
:1037B000F66EE851F420F76E020EF626000EF722A0
:1037C000F6CF14F0F7CF15F0010E1426000E1522D7
:1037D00014C0E6FF15C0E6FF95EC52F0E552E55245
:1037E000DE6EDD6ADECF16F0DDCF17F016C017F003
:1037F000166A020EDB501610146E030EDB50171003
:10380000156E14C0F3FFF46E050EE15C02E2E16A8E
:10381000E552E16EE552E7CFD9FF1200D9CFE6FFBE
:10382000E1CFD9FF040EE126FE0EDB50100D04019E
:10383000E751F324F66EE851F420F76E020EF626F7
:10384000000EF722020EF626000EF722F6CF14F035
:10385000F7CF15F014C0E6FF15C0E6FF95EC52F067
:10386000E552E552E66ED950020FE96EDACFEAFF73
:10387000E552E750EE6EED6AFE0EDB50100D0401CE
:10388000E751F324F66EE851F420F76E020EF626A7
:10389000000EF722020EF626000EF722F6CF14F0E5
:1038A000F7CF15F0010E1426000E152214C0E6FF06
:1038B00015C0E6FF95EC52F0E552E552DE6EDD6A8A
:1038C000DECF16F0DDCF17F016C017F0166A020E25
:1038D000DB501610146E030EDB501710156E14C05B
:1038E000F3FFF46E040EE15C02E2E16AE552E16E80
:1038F000E552E7CFD9FF1200D9CFE6FFE1CFD9FFDC
:10390000050EE126060EE76EFD0EDBCFE9FFFE0E8B
:10391000DBCFEAFFE750E926000EEA22EF50080B62
:1039200003E0DE6ADD6A28D0070EE76EFD0EDBCF0E
:10393000E9FFFE0EDBCFEAFFE750E926000EEA22A0
:10394000EF50DE6EDD6ADECF14F0DDCF15F014C06F
:1039500015F0146A14C0DEFF15C0DDFF080EE76E17
:10396000FD0EDBCFE9FFFE0EDBCFEAFFE750E926D5
:10397000000EEA22EF50DF12090EE76EFD0EDBCFDC
:10398000E9FFFE0EDBCFEAFFE750E926000EEA2250
:10399000EF50E66ED950020FE96EDACFEAFFE5523A
:1039A000E750EE6EED6A020EDBCF14F0030E14C08A
:1039B00015F0146A020E14C0DBFF030E15C0DBFF06
:1039C0000A0EE76EFD0EDBCFE9FFFE0EDBCFEAFF4E
:1039D000E750E926000EEA22EF50146E156AD9501E
:1039E000020FE96EDACFEAFF1450EE121550ED1215
:1039F000020EDBCFE6FF030EDBCFE6FFDECFE6FFF6
:103A0000DDCFE6FFFDEC16F0E552E552E552E5525A
:103A1000E76E040EE7CFDBFFDB50FF0810E0FD0E82
:103A2000DBCFE6FFFE0EDBCFE6FF040EDBCFE6FFCB
:103A300013EC2BF0E552E552E552010E01D0000ED9
:103A4000146E050EE15C02E2E16AE552E16E14508B
:103A5000E552E7CFD9FF1200D9CFE6FFE1CFD9FF7A
:103A6000FE0EDB04E552E7CFD9FF1200D9CFE6FF07
:103A7000E1CFD9FFFE0EDB28E552E7CFD9FF1200D8
:103A8000D9CFE6FFE1CFD9FF030EE126DF6ADF5091
:103A9000146E156AD890155004E6FF0E145C000EE3
:103AA000155855E2DFCFE6FF5AEC12F0E552000957
:103AB0004CE0010EDB6ADFCFE6FF6BDDE55200096B
:103AC00049E1010EF36E020EF3CFDBFF140EF36E2D
:103AD000020EDBCFF4FFF350F45C30E2020EDB5059
:103AE000EA6AA20FE96E040EEA22EFCF14F0FE0E8E
:103AF000DB50145C20E3020EDB50EA6AA20FE96E91
:103B0000040EEA22EFCF15F0FD0EDBCFE6FFFE0E2E
:103B1000DB50E552E724155C0EE2E66A020EDBCFCD
:103B2000E6FFDFCFE6FF81EC17F0E552E552E55204
:103B3000DE52010EDD6E020EDB2AC8D7010EDB500D
:103B400004E0DFCFE6FF92D8E552DF2AA0D78CEC65
:103B500052F0BED9030EE15C02E2E16AE552E16E89
:103B6000E552E7CFD9FF1200D9CFE6FFE1CFD9FF69
:103B7000030EE126DF6ADF50146E156AD8901550E7
:103B800004E6FF0E145C000E155863E2DFCFE6FF7B
:103B90005AEC12F0E55200095AE0DF50100D040112
:103BA000E751F324F66EE851F420F76EF6CF14F0E7
:103BB000F7CF15F014C0E6FF15C0E6FF95EC52F004
:103BC000E552E552E76E010EE7CFDBFFDF50100D47
:103BD0000401E751F324F66EE851F420F76E060E67
:103BE000F626000EF722F6CF14F0F7CF15F014C02A
:103BF000E6FF15C0E6FF95EC52F0E552E552E76EA0
:103C0000020EE7CFDBFFFE0EDB50F36E020EDBCFC2
:103C1000F4FFF350F45C1BE3FD0EDBCFE6FFFE0E7A
:103C2000DB50E552E724F36E020EDBCFF4FFF350D6
:103C3000F45C0DE2E66AE66ADFCFE6FF81EC17F09E
:103C4000E552E552E552DFCFE6FF10D8E552DF2A14
:103C500092D78CEC52F03CD9030EE15C02E2E16AAF
:103C6000E552E16EE552E7CFD9FF1200D9CFE6FF6A
:103C7000E1CFD9FFE652FE0EDBCFE6FF5AEC12F0A1
:103C8000E55200091BE0FE0EDBCFE6FF82DCE552C9
:103C9000000914E1DF6A140EDF5C0AE2DF50EA6A11
:103CA000A20FE96E040EEA22EF5008E1DF2AF3D7F3
:103CB000FE0EDBCFE6FF34EC15F0E552E552E5529F
:103CC000E7CFD9FF1200D9CFE6FFE1CFD9FF010E30
:103CD000F36EFE0EDBCFF4FFF350F45C12E3490EFB
:103CE000F36EFE0EDBCFF4FFF350F45C0AE2FE0E3F
:103CF000DB04EA6A380FE96E090EEA22EF50FF088A
:103D000002E1000E1FD0FE0EDB04EA6A380FE96EF6
:103D1000090EEA22EF50E66EF4DCE552F3CFB6F47A
:103D2000F4CFB7F4FE0EDB04EA6A380FE96E090E31
:103D3000EA22EF50E66E72DDE552F3CFB8F4F4CF2D
:103D4000B9F4010EE552E7CFD9FF1200D9CFE6FF53
:103D5000E1CFD9FF030EE126FE0EDB50070BDF6E2D
:103D6000FE0EDB40E840E8401F0BE76E010EE7CF98
:103D7000DBFFDB50156AD80F146E030E152214C03A
:103D8000E6FF15C0E6FF2CEC54F0E552E552E76E75
:103D9000020EE7CFDBFFFD0EDB5010E0010EDF521D
:103DA00006E0DFCFF3FFE846FE0BF306FCE1146EFE
:103DB000020EDBCFE7FF1450E71210D0010EDF52E6
:103DC00006E0DFCFF3FFE846FE0BF306FCE1E81C5C
:103DD000146E020EDBCFE7FF1450E716020EE7CF9A
:103DE000DBFFDBCFE6FF010EDB50156AD80F146E48
:103DF000030E152214C0E6FF15C0E6FF56EC54F082
:103E0000E552E552E552FE0EDBCFE6FF5CDFE55200
:103E100000090CE1FE0EDBCFE6FFDFEC2AF0E552F5
:103E2000000919E00401B851B91113E0FD0EDBCF10
:103E3000E6FFB8C4E6FFB9C4E6FFB6C4E6FFB7C400
:103E4000E6FFE66A19EC56F0146E060EE15E1450B9
:103E500003D0010E01D0000E146E030EE15C02E2ED
:103E6000E16AE552E16E1450E552E7CFD9FF120046
:103E7000D9CFE6FFE1CFD9FFE652FE0EDBCF17F038
:103E800017C016F0176AFD0EDB501618146EE850B6
:103E9000DF6E070EDF02F350146E156AFB0EFC0E88
:103EA000DBCF19F019C018F0196AFB0EDB50181897
:103EB000166EFC0EDB501918176EF3501624DF6EC9
:103EC0001F0EDF16DF50E552E552E7CFD9FF120093
:103ED000D9CFE6FFE1CFD9FF070EE126050EDB6A59
:103EE000480EF36E050EDBCFF4FFF350F45C0BE2EB
:103EF000050EDB50EA6A380FE96E090EEA22EF6818
:103F0000050EDB2AEDD7DF6A200EDF5C22E2010E10
:103F1000DB6A140EF36E010EDBCFF4FFF350F45C9A
:103F200016E2DF50140DF3CF14F0F4CF15F0800E2D
:103F30001426090E1522010EDB500F011424E96E20
:103F4000000E1520EA6EEF68010EDB2AE2D7DF2AA9
:103F5000DBD7020EDB6ADB50146E156AD890155061
:103F600004E6FF0E145C000E155801E39AD0020E11
:103F7000DBCFE6FF5AEC12F0E552000901E18ED0EA
:103F8000E66A020EDBCFE6FF7CEC19F0E552E55263
:103F9000030EF3CFDBFF040EF4CFDBFF030EDBCF0A
:103FA00014F0040EDBCF15F00001800E15141EE195
:103FB000030EDB50E76E050EE7CFDBFF010EF36E5D
:103FC000050EDBCFF4FFF350F45C10E3050EDB04C9
:103FD000146E480E145C0AE2050EDB04EA6A380F20
:103FE000E96E090EEA22020EDBCFEFFF020EDBCFF5
:103FF000E6FF14DCE552F3CF14F0F4CF15F0F3CF65
:10400000E6FFF4CFE6FF020EDBCFE6FF81EC1BF00C
:10401000E552F3CF16F0F4CF17F0F3CFE6FFF4CF6D
:10402000E6FF26DFE552E552E552E552DF6E010E6E
:10403000DB6A140EF36E010EDBCFF4FFF350F45C79
:104040002DE2DF50140DF3CF14F0F4CF15F0800EF5
:104050001426090E1522010EDB500F011424E96EFF
:10406000000E1520EA6EEF50FF0815E1DF50140D29
:10407000F3CF14F0F4CF15F0800E1426090E15229C
:10408000010EDB501424E96E000E1520EA6E020EBC
:10409000DBCFEFFF03D0010EDB2ACBD7020EDB2AEA
:1040A0005AD7070EE15C02E2E16AE552E16EE552A1
:0640B000E7CFD9FF12006A
:0A40B600FB0EE66E030EE66E2CEC26
:1040C00054F0E552E5520401586F596F000EE66E48
:1040D000E66A4EEC55F0E552E55258EC12F0090153
:1040E000346B0401580502E0000E01D0010EE66EAB
:1040F000A6EC5EF0E5520901356B1200040158513F
:10410000090A01E197D00D0A01E185D0070A6AE0AA
:10411000010A20E0030A03E0010A01E0120080B472
:10412000B2D058C459F4020E586F32CE14F0156A4A
:1041300014500E013A6F0E0131510E013B6F60ECCD
:1041400060F006C05AF407C05BF408C05CF409C014
:104150005DF4120080B420D060EC60F004015A518C
:10416000065C146E5B510758156E5C510858166E4C
:104170005D510958176ED880900E1454D00E155406
:10418000030E1654000E17542CE2030E586FE66A05
:10419000C0EC5EF0E5521200590521E160EC60F0E0
:1041A00004015A51065C146E5B510758156E5C5140
:1041B0000858166E5D510958176ED8806A0E14544F
:1041C000180E1554000E1654000E175408E2040E73
:1041D000586FE66AC0EC5EF0E55244EF21F059C436
:1041E00058F4120080A44FD0595104E1040E586FC6
:1041F00044EF21F0586B67D89CEC5EF00E01316BF8
:10420000326BE66A31CEE6FF32CEE6FF03EC28F0F1
:10421000E552E55234D080B436D0090E586F60ECC8
:1042200060F006C05AF407C05BF408C05CF409C033
:104230005DF4120080A427D060EC60F004015A51B4
:10424000065C146E5B510758156E5C510858166E6B
:104250005D510958176ED8806A0E1454180E155403
:10426000000E1654000E17540CE259C458F45805A9
:1042700002E0000E01D0010EE66EA6EC5EF0E55203
:104280001200040E586F1200D9CFE6FFE1CFD9FF1C
:10429000090EE126D9CFE6FFDACFE6FFE668E66849
:1042A000500EE66EE668C4EC55F0146E060EE15E44
:1042B0001450090EE15C02E2E16AE552E16EE5525A
:1042C000E7CFD9FF1200330EE66E0E0EE66EE668FB
:1042D000E668510EE66EE668C4EC55F0146E060E04
:1042E000E15E14501200D9CFE6FFE1CFD9FF060EF0
:1042F000E76EFD0EDBCFE9FFFE0EDBCFEAFFE750F6
:10430000E926000EEA22EF50900B900819E1060E04
:10431000E76EFD0EDBCFE9FFFE0EDBCFEAFFE750D5
:10432000E926000EEA22EF1C060B060809E1FD0E45
:10433000DBCFE6FFFE0EDBCFE6FF7CEC1CF007D008
:10434000FD0EDBCFE6FFFE0EDBCFE6FF06D8E55223
:10435000E552E552E7CFD9FF1200D9CFE6FFE1CF12
:10436000D9FF0C01006B070E0401585D01E034D247
:104370000C01010E006F060EE76EFD0EDBCFE9FFAC
:10438000FE0EDBCFEAFFE750E926000EEA22EF50EF
:10439000920A01E1C7D1200A01E15FD1470A01E198
:1043A000E9D0270A74E0470A1BE0C00A16E0010AB8
:1043B00010E0070A01E00DD2FD0EDBCFE6FFFE0E96
:1043C000DBCFE6FFBAEC27F0E552E552000901E049
:1043D00003D20401010E586FFFD129EC28F0FCD163
:1043E000090EE76EFD0EDBCFE9FFFE0EDBCFEAFF25
:1043F000E750E926000EEA22EFCF16F016C017F0BC
:10440000166A0A0EE76EFD0EDBCFE9FFFE0EDBCF6C
:10441000EAFFE750E926000EEA22EF5000011624D9
:10442000146E000E1720156E14C0E6FF15C0E6FFCF
:10443000070EE76EFD0EDBCFE9FFFE0EDBCFEAFFD6
:10444000E750E926000EEA22EFCF1AF01AC01BF05F
:104450001A6A080EE76EFD0EDBCFE9FFFE0EDBCF1A
:10446000EAFFE750E926000EEA22EF5000011A2485
:10447000186E000E1B20196E18C0E6FF19C0E6FF6B
:1044800015EC29F0E552E552E552E552A5D10C0EA6
:10449000E76EFD0EDBCFE9FFFE0EDBCFEAFFE75054
:1044A000E926000EEA22EF50E66E0B0EE76EFD0ED7
:1044B000DBCFE9FFFE0EDBCFEAFFE750E926000E77
:1044C000EA22EF50E66E090EE76EFD0EDBCFE9FF44
:1044D000FE0EDBCFEAFFE750E926000EEA22EFCF1F
:1044E00016F016C017F0166A0A0EE76EFD0EDBCF47
:1044F000E9FFFE0EDBCFEAFFE750E926000EEA22D5
:10450000EF5000011624146E000E1720156E14C013
:10451000E6FF15C0E6FF070EE76EFD0EDBCFE9FFF5
:10452000FE0EDBCFEAFFE750E926000EEA22EFCFCE
:104530001AF01AC01BF01A6A080EE76EFD0EDBCFE8
:10454000E9FFFE0EDBCFEAFFE750E926000EEA2284
:10455000EF5000011A24186E000E1B20196E18C0AF
:10456000E6FF19C0E6FF40EC28F01C6E060EE15E87
:104570001C5032D10D0EE76EFD0EDBCFE9FFFE0EB3
:10458000DBCFEAFFE750E926000EEA22EF50E66EA5
:104590000C0EE76EFD0EDBCFE9FFFE0EDBCFEAFF70
:1045A000E750E926000EEA22EF50E66E090EE76EAC
:1045B000FD0EDBCFE9FFFE0EDBCFEAFFE750E92679
:1045C000000EEA22EFCF16F016C017F0166A0A0E98
:1045D000E76EFD0EDBCFE9FFFE0EDBCFEAFFE75013
:1045E000E926000EEA22EF5000011624146E000E98
:1045F0001720156E14C0E6FF15C0E6FF070EE76E24
:10460000FD0EDBCFE9FFFE0EDBCFEAFFE750E92628
:10461000000EEA22EFCF1AF01AC01BF01A6A080E39
:10462000E76EFD0EDBCFE9FFFE0EDBCFEAFFE750C2
:10463000E926000EEA22EF5000011A24186E000E3F
:104640001B20196E18C0E6FF19C0E6FF40EC28F0E9
:104650001C6E060EE15E1C50BFD00B0EE76EFD0E09
:10466000DBCFE9FFFE0EDBCFEAFFE750E926000EC5
:10467000EA22EF50E66E090EE76EFD0EDBCFE9FF92
:10468000FE0EDBCFEAFFE750E926000EEA22EFCF6D
:1046900016F016C017F0166A0A0EE76EFD0EDBCF95
:1046A000E9FFFE0EDBCFEAFFE750E926000EEA2223
:1046B000EF5000011624146E000E1720156E14C062
:1046C000E6FF15C0E6FF070EE76EFD0EDBCFE9FF44
:1046D000FE0EDBCFEAFFE750E926000EEA22EFCF1D
:1046E0001AF01AC01BF01A6A080EE76EFD0EDBCF37
:1046F000E9FFFE0EDBCFEAFFE750E926000EEA22D3
:10470000EF5000011A24186E000E1B20196E18C0FD
:10471000E6FF19C0E6FF2FEC29F01C6E050EE15EE6
:104720001C505AD0090EE76EFD0EDBCFE9FFFE0EDE
:10473000DBCFEAFFE750E926000EEA22EFCF16F0C2
:1047400016C017F0166A0A0EE76EFD0EDBCFE9FF02
:10475000FE0EDBCFEAFFE750E926000EEA22EF501B
:1047600000011624146E000E1720156E14C0E6FF0B
:1047700015C0E6FF070EE76EFD0EDBCFE9FFFE0E6C
:10478000DBCFEAFFE750E926000EEA22EFCF1AF06E
:104790001AC01BF01A6A080EE76EFD0EDBCFE9FFA8
:1047A000FE0EDBCFEAFFE750E926000EEA22EF50CB
:1047B00000011A24186E000E1B20196E18C0E6FFA7
:1047C00019C0E6FF3BEC14F0E552E552E552E55224
:1047D00003D00C01006B00D00C01005101E0EAD0C5
:1047E000FD0EDBCFE6FFFE0EDBCFE6FFC3DBE552BF
:1047F000E552000901E1DED00C01010E006F060E4A
:10480000E76EFD0EDBCFE9FFFE0EDBCFEAFFE750E0
:10481000E926000EEA22EF505D0A01E1C2D0280A23
:1048200001E1A5D0290A01E197D0C00A75E00A0A82
:1048300053E0E70A40E0290A3BE02A0A27E0250A7C
:1048400022E0010A1DE0050A14E0200A01E0AFD0D1
:10485000090EE76EFD0EDBCFE9FFFE0EDBCFEAFFB0
:10486000E750E926000EEA22EF50E66E35D9E55210
:10487000A1D00401580503E10401070E586F9AD036
:10488000BFEC12F097D012EC13F094D0090EE76E43
:10489000FD0EDBCFE9FFFE0EDBCFEAFFE750E92696
:1048A000000EEA22EF50E66E8AEC13F0E55282D059
:1048B00003EC14F07FD0090EE76EFD0EDBCFE9FFAD
:1048C000FE0EDBCFEAFFE750E926000EEA22EF50AA
:1048D000E66E8CD9E5526ED00A0EE76EFD0EDBCF88
:1048E000E9FFFE0EDBCFEAFFE750E926000EEA22E1
:1048F000EF50E66E090EE76EFD0EDBCFE9FFFE0E10
:10490000DBCFEAFFE750E926000EEA22EF50E66E21
:10491000B0D9E552E5524ED00A0EE76EFD0EDBCF60
:10492000E9FFFE0EDBCFEAFFE750E926000EEA22A0
:10493000EF50E66E090EE76EFD0EDBCFE9FFFE0ECF
:10494000DBCFEAFFE750E926000EEA22EF50E66EE1
:10495000DBDBE552E5522ED0E668E668030EE66E34
:1049600056EC54F0E552E552E552FF0023D0090E13
:10497000E76EFD0EDBCFE9FFFE0EDBCFEAFFE7506F
:10498000E926000EEA22EF50E66EF7EC3AF0E55227
:10499000000906E1070EE66EE66AD1DAE552E55255
:1049A00009D0010EE66E72EC3EF0E55203D00C0128
:1049B000006B00D00C01005113E1060EE76EFD0EF6
:1049C000DBCFE9FFFE0EDBCFEAFFE750E926000E62
:1049D000EA22EF500D0804E139D80C01010E006FF6
:1049E0000C0100512CE1040E0401585D28E10C017A
:1049F000010E006F060EE76EFD0EDBCFE9FFFE0E27
:104A0000DBCFEAFFE750E926000EEA22EF50420A28
:104A100009E0530A05E0010A01E00ED09AD90FD04F
:104A2000EED90DD0FD0EDBCFE6FFFE0EDBCFE6FFAD
:104A30003FDAE552E55203D00C01006B00D00C01C7
:104A4000005100D0E552E7CFD9FF1200D9CFE6FFE1
:104A5000E1CFD9FF020EE126200EDE6E080EDD6EDC
:104A60000E01B60E396FDECFF6FFDDCFF7FF08007F
:104A7000F5CF3CFEDECFF6FFDDCFF7FF020EF626C8
:104A8000000EF7220800F5CF3DFEDECFF6FFDDCFAA
:104A9000F7FF070EF626000EF7220800F5CF3EFEC0
:104AA0000401580502E10E013E85330EE66E0E0E3E
:104AB000E66EE668E668E6682BEC57F0146E050EC5
:104AC000E15E1450020EE15C02E2E16AE552E16E41
:104AD000E552E7CFD9FF1200D9CFE6FFE1CFD9FFEA
:104AE000020EE126200EDE6E080EDD6EFE0EDBCF1E
:104AF00014F0380EF66E080EF76E0900F5CF15F0BB
:104B00000800F5CF16F01450155C000E16585EE341
:104B10000E019B0E396FFE0EDBCF3CFEDB5004E135
:104B2000380EF66E080E37D00F0EF36EFE0EDBCF8A
:104B3000F4FFF350F45C20E3130EF36EFE0EDBCFB4
:104B4000F4FFF350F45C18E22AEC55F0F3CF16F0C2
:104B5000F4CF17F0FE0EDB50F10F080DF35016C026
:104B600014F017C015F005E0D89015321432E8049F
:104B7000FBE114C03DFE13D0DECFF6FFDDCFF7FF23
:104B8000F6CF14F0F7CF15F0FE0EDB040F0114245E
:104B9000F66E000E1520F76E0800F5CF3DFEFE0EF6
:104BA000DB50080805E10401580502E10E013D85CE
:104BB000330EE66E0E0EE66EE668E668E6682BECEF
:104BC00057F0146E050EE15E145006D0090EE66E25
:104BD000E66AB5D9E552E552020EE15C02E2E16A0D
:104BE000E552E16EE552E7CFD9FF1200D9CFE6FFDB
:104BF000E1CFD9FF020EE126FE0EDB5009E0FE0EEA
:104C0000DB50146E156A800E145C000E155805E317
:104C10000A0EE66EE66A93D920D0800EDE6EDD685D
:104C2000FE0EDB50DE26000EDD220E01970E396FE0
:104C3000FE0EDBCF3CFEDECFE6FFDDCFE6FF95ECE0
:104C400052F0E552E5520E013D6F330EE66E0E0E48
:104C5000E66EE66AF3EC56F0E552E552E552020ED6
:104C6000E15C02E2E16AE552E16EE552E7CFD9FF8D
:104C70001200D9CFE6FFE1CFD9FF030EE126FE0EE9
:104C8000DB5009E0FE0EDB50146E156A800E145CDA
:104C9000000E155802E30A0E4DD0800EDE6EDD6860
:104CA000FE0EDB50DE26000EDD22FE0EDB50040180
:104CB000F76AE925F66EEA51F7220800020EF5CFF1
:104CC000DBFFFD0EDBCFE6FF020EDBCFE6FFFE0EC5
:104CD000DBCFE6FF86EC4EF0E552E552E5520009E7
:104CE00028E0FD0EDBCFE6FFDECFE6FFDDCFE6FFFF
:104CF000A8EC53F0E552E552E552C1EC60F0FD0E30
:104D0000DBCFE6FF020EDBCFE6FFFE0EDBCFE6FFDA
:104D1000D7EC4EF0E552E552E552330EE66E0E0E3C
:104D2000E66E590EE66EE66AA0EC55F0E552E552E5
:104D300004D00C0EE66EE66A02D9E552E552030E87
:104D4000E15C02E2E16AE552E16EE552E7CFD9FFAC
:104D50001200D9CFE6FFE1CFD9FF030EE126200EE6
:104D6000DE6E080EDD6E0E01EF0E396F070EF36E6C
:104D7000020EF3CFDBFFDB500D0821E3DECFF6FFA1
:104D8000DDCFF7FFF6CF14F0F7CF15F0020EDB50B2
:104D9000F90F0F011424F66E000E1520F76E0800AF
:104DA000F550E66E020EDB50EA6A330FE96E0E0E26
:104DB000EA22E552E750EF6E020EDB2ADCD704014F
:104DC000580502E10E014185070E0401585D03E11B
:104DD000240E0E014113330EE66E0E0EE66EE66AE9
:104DE0007EEC57F0E552E552E552030EE15C02E23B
:104DF000E16AE552E16EE552E7CFD9FF1200D9CF63
:104E0000E6FFE1CFD9FF080EE1263A0EF66E080E56
:104E1000F76E040E0900F5CFDBFF050E0900F5CF94
:104E2000DBFF060E0900F5CFDBFF070E0900F5CF0B
:104E3000DBFF040EDBCF08F0050EDBCF09F0020E1E
:104E400008C0DBFF030E09C0DBFF0E01E20E396F65
:104E5000DF6A070EDF5C18E2020EDBCFF6FFDB2A0B
:104E6000030EDBCFF7FF01E3DB2A0800F550E66E07
:104E7000070EDF24EA6A330FE96E0E0EEA22E552CE
:104E8000E750EF6EDF2AE5D7330EE66E0E0EE66EC4
:104E9000E66A7EEC57F0E552E552E552080EE15C19
:104EA00002E2E16AE552E16EE552E7CFD9FF120076
:104EB000D9CFE6FFE1CFD9FF070EE76EFD0EDBCFBE
:104EC000E9FFFE0EDBCFEAFFE750E926000EEA22FB
:104ED000EF500E01326B326F316B080EE76EFD0E34
:104EE000DBCFE9FFFE0EDBCFEAFFE750E926000E3D
:104EF000EA22EF50146E156AE8503127155032231C
:104F00000401010E586FE66E31CEE6FF32CEE6FFA9
:104F10007AD8E552E552E552330EE66E0E0EE66E95
:104F2000520EE66EE66AA0EC55F0E552E552E55207
:104F3000E552A1EC5EF0E552E7CFD9FF1200D9CFE0
:104F4000E6FFE1CFD9FF0E016F0E396FFD0EDBCF0B
:104F50003CFE330EE66E0E0EE66EE668E668E66828
:104F60002BEC57F0146E050EE15E1450E552E7CFBE
:104F7000D9FF1200D9CFE6FFE1CFD9FF060EE76EC9
:104F8000FD0EDBCFE9FFFE0EDBCFEAFFE750E9269F
:104F9000000EEA22EF50E00BE838E840146E020EF3
:104FA000145C2CE3070EE76EFD0EDBCFE9FFFE0E6F
:104FB000DBCFEAFFE750E926000EEA22EFCF17F039
:104FC00017C018F0176A080EE76EFD0EDBCFE9FF79
:104FD000FE0EDBCFEAFFE750E926000EEA22EF5093
:104FE0001724156E000E1820166E0E01315115187B
:104FF00005E13251161802E1010E01D0000EE55212
:10500000E7CFD9FF1200D9CFE6FFE1CFD9FFFD0EE0
:10501000DBCFE6FFFE0EDBCFE6FFFC0EE66E030EF7
:10502000E66EE8EC54F0E552E552E552E552FC0E2E
:10503000DBCFE6FFFB0EE66E030EE66E56EC54F099
:10504000E552E552E55268EC1FF0E552E7CFD9FF93
:105050001200070E0401585D02E18CEF12F00E0100
:10506000020E3C6F330EE66E0E0EE66E6F0EE66EAF
:10507000E66AA0EC55F0E552E552E552E552120021
:10508000D9CFE6FFE1CFD9FFE652FA0EDB5004E1BB
:105090000E01060E3C6F20D0FA0EDB06E66AF90E12
:1050A000DBCFE6FFFA0EDBCFE6FFFB0EDBCFE6FF42
:1050B000FC0EDBCFE6FFFD0EDBCFE6FFFE0EDBCF07
:1050C000E6FFDBEC15F0146E070EE15E1450DF6EA8
:1050D000DF5008E0DFCF3CFE330EE66E0E0EE66ECC
:1050E0006F0E05D0330EE66E0E0EE66E590EE66EAE
:1050F000E66AA0EC55F0E552E552E552E552E5527C
:10510000E552E7CFD9FF1200D9CFE6FFE1CFD9FFB3
:10511000040EE126FE0EDBCFE6FF2CEC1DF0E5527F
:10512000E76E010EE7CFDBFFFD0EDB50140803E254
:105130000E01060E62D0FD0EDB04DF6E010EDB50A9
:10514000146E156AD890155004E6FF0E145C000E1C
:10515000155851E2010EDBCFE6FF5AEC12F0E55292
:10516000000949E0FD0EDB5011E1010EDBCFE6FF47
:105170003AEC1AF0E552E66ED950020FE96EDACF3A
:10518000EAFFE552E750EE6EED6A0FD0DFCFE6FFA3
:10519000010EDBCFE6FF7CEC19F0E552E552020E82
:1051A000F3CFDBFF030EF4CFDBFF020EDBCF14F0F7
:1051B000030EDBCF15F00001800E15140FE1FE0E7B
:1051C000DBCF3CFEFD0EDBCF3DFE020EDBCF3EFE15
:1051D000330EE66E0E0EE66EB50E15D00868096841
:1051E000020EDBCF0DF0030EDBCF0EF09CEC5FF078
:1051F00006C03CFE03D00E01070E3C6F330EE66E78
:105200000E0EE66E6F0EE66EE66AA0EC55F0E55205
:10521000E552E552E552040EE15C02E2E16AE55234
:10522000E16EE552E7CFD9FF1200D9CFE6FFE1CF1B
:10523000D9FFFB0EDBCFE6FFFC0EDBCFE6FFFD0E5A
:10524000DBCFE6FFFE0EDBCFE6FF0FEC15F0E552FD
:10525000E552E552E552E552E7CFD9FF1200D9CF2A
:10526000E6FFE1CFD9FF030EE126FB0EDBCFE6FF21
:10527000FC0EDBCFE6FFFD0EDBCFE6FFFE0EDBCF45
:10528000E6FFFDEC16F0E552E552E552E552E76E19
:10529000020EE7CFDBFFDB50FF0803E10E01070E34
:1052A00009D0FA0EDB5004E0FA0EDB50140804E2D9
:1052B0000E01060E3C6F44D0FB0EDBCF14F0FC0E4B
:1052C000DBCF15F015C014F0156A14C03CFEFF0EBC
:1052D000E76EFB0EDBCF14F0FC0EDBCF15F0E750D2
:1052E0001416156A14C03DFEFA0EDBCF3EFEDB0637
:1052F000FA0EDBCFE6FF020EDBCFE6FF7CEC19F007
:10530000E552E552F3CFDEFFF4CFDDFFDECF14F040
:10531000DDCF15F00001800E151408E1DFCF3FFE50
:10532000330EE66E0E0EE66ED30E0FD008680968D7
:10533000DECF0DF0DDCF0EF09CEC5FF006C03CFE42
:10534000330EE66E0E0EE66E6F0EE66EE66AA0ECAB
:1053500055F0E552E552E552E552030EE15C02E2FA
:0E536000E16AE552E16EE552E7CFD9FF120097
:02536E00030139
:10537000FC6BFD6BFE6BFF6B12001200D9CFE6FFDA
:10538000E1CFD9FF020EE126FE0EDB28DE6EDD6ADC
:10539000FE0EDBCFE6FF1AD9E552FD0EDB50060A02
:1053A00001E1CCD0030A01E1B1D0010A01E1FDD055
:1053B000060A42E0020A01E1A9D0010A03E0020A5A
:1053C00001E0F3D0010EE66EFE0EDB50050DF3504A
:1053D000080FE66E010EE66EDECFE6FFDDCFE6FFDC
:1053E00031CEE6FF32CEE6FFDBEC15F0146E070E91
:1053F000E15E1450010EE66EFE0EDB50050DF3501B
:10540000080F030FE66E010EE66EDECF14F0DDCF5F
:1054100015F0C80E1426000E152214C0E6FF15C0A4
:10542000E6FF31CEE6FF32CEE6FFDBEC15F0166E7E
:10543000070EE15E16509AD0010EE66EFE0EDB50AE
:10544000040DF350080FE66EE66ADECF14F0DDCFF0
:1054500015F0640E1426000E152214C0E6FF15C0C8
:10546000E6FF31CEE6FF32CEE6FFDBEC15F0166E3E
:10547000070EE15E1650010EE66EFE0EDB50040DC7
:10548000F350080F010FE66EE66ADECF14F0DDCFB1
:1054900015F02C0E1426010E152214C0E6FF15C0BF
:1054A000E6FF31CEE6FF32CEE6FFDBEC15F0166EFE
:1054B000070EE15E1650010EE66EFE0EDB50040D87
:1054C000F350080F020FE66EE66ADECF14F0DDCF70
:1054D00015F0C80E1426000E152214C0E6FF15C0E4
:1054E000E6FF31CEE6FF32CEE6FFDBEC15F0166EBE
:1054F000070EE15E1650010EE66EFE0EDB50050D46
:10550000F350080FE66E010EE66E09D0010EE66E4E
:10551000FE0EDB50040DF350080FE66EE66ADECF98
:10552000E6FFDDCFE6FF31CEE6FF32CEE6FFDBEC75
:1055300015F0146E070EE15E145037D0010EE66EC2
:10554000FE0EDB50040DF350080F010FE66EE66A05
:10555000DECFE6FFDDCFE6FF31CEE6FF32CEE6FF5F
:10556000DBEC15F0146E070EE15E1450010EE66ED2
:10557000FE0EDB50040DF350080FE66EE66ADECF38
:1055800014F0DDCF15F0640E1426000E152214C0A1
:10559000E6FF15C0E6FF31CEE6FF32CEE6FFDBECDC
:1055A00015F0166E070EE15E1650020EE15C02E287
:1055B000E16AE552E16EE552E7CFD9FF1200D9CF9B
:1055C000E6FF000EE552E7CFD9FF1200D9CFE6FF84
:1055D000E1CFD9FF050EE66EFE0EDB50050DF35050
:1055E000080FE66E40EC1DF0E552E552050EE66E42
:1055F000FE0EDB50050DF350080F8009E66E40ECFF
:105600001DF0E552E552040EE66EFE0EDB50040D71
:10561000F350080FE66EB4EC1DF0E552E552E5528A
:10562000E7CFD9FF1200D9CFE6FFE1CFD9FF0A0EAD
:10563000E126FE0EDBCFE6FFC9EC1AF0E552E76E7D
:10564000050EE7CFDBFF060EE76EFC0EDBCFE9FFB2
:10565000FD0EDBCFEAFFE750E926000EEA22050E39
:10566000EFCFDBFFDBB0E4D0010EDF6E140EDF5CAA
:1056700001E312D2DF50EA6AA20FE96E040EEA22B9
:10568000EF50E66ED950030FE96EDACFEAFFE5522C
:10569000E750EE6EED6AD950030FE96EDACFEAFFFC
:1056A000EE50ED1001E1C2D07F0EE76E030EDBCFAE
:1056B00014F0040EDBCF15F0E7501416156A1534FC
:1056C00004E214505808000E155401E2AFD07F0ECA
:1056D000E76E030EDBCF14F0040EDBCF15F0E750BE
:1056E0001416156AD890155004E6080E145C000EC6
:1056F000155801E295D07F0EE76E030EDBCF14F054
:10570000040EDBCF15F0E7501416156A080E145E70
:10571000000E155A050E0D6E0E6A14C008F015C065
:1057200009F076EC5FF008C014F009C015F0010E26
:1057300008C0DBFF7F0EE76E030EDBCF14F0040E14
:10574000DBCF15F0E7501416156A080E145E000E34
:10575000155A050E0D6E0E6A14C008F015C009F03A
:1057600076EC5FF004C014F005C015F0020E04C022
:10577000DBFFE5C4E9FFE6C4EAFF100EE926000EF0
:10578000EA22E9CF14F0EACF15F0010EDB50070D45
:10579000E950F324E96EEA50F420EA6EEF50040A6F
:1057A0003FE0060A1FE0010A1DE0020A3FE1E5C4EE
:1057B000E9FFE6C4EAFF100EE926000EEA22E9CF6F
:1057C00014F0EACF15F0010EDB50070DE950F32479
:1057D000E96EEA50F420EA6EEE52EF50800B02E0E0
:1057E0008AEC5EF0020EDB5005E1030EDB2A040EAC
:1057F00001E3DB2A020EDB50040809E1D950030F54
:10580000E96EDACFEAFF020EEE5E000EED5A030EED
:10581000DBCFE6FFBCEC5DF0E5528EEC5EF006D02F
:10582000030EDBCFE6FFBCEC5DF0E552DF2A1ED7AE
:105830000401B551E66ED950060FE96EDACFEAFFE2
:10584000E552E750EE6EED6A130EDF6E010EDF5C7F
:1058500001E222D1090EDB6A060EDBCF08F0070E4B
:10586000DBCF09F0030E08C0DBFF040E09C0DBFF2D
:10587000DF50010820E2DF04EA6AA20FE96E040E9D
:10588000EA22EF50E66ED950060FE96EDACFEAFF52
:10589000E552E750EE6EED6A800EE76E060EDBCF46
:1058A00014F0070EDBCF15F0E7501416156A080E3A
:1058B00014C0DBFF07D0090EDB50800BE76E080E2B
:1058C000E7CFDBFFD950030FE96EDACFEAFFEE50E6
:1058D000ED1001E1DFD0090EDB5006E1030EDB50D5
:1058E000E76E090EE7CFDBFFD950030FE96EDACF81
:1058F000EAFFEE9EED6A030EDBCF14F0040EDBCF61
:1059000015F0153404E214505808000E155401E245
:10591000C1D0030EDBCF14F0040EDBCF15F0D8900E
:10592000155004E6080E145C000E155801E2A2D0D2
:10593000030EDBCF14F0040EDBCF15F0080E145E5F
:10594000000E155A050E0D6E0E6A14C008F015C033
:1059500009F076EC5FF008C014F009C015F0010EF4
:1059600008C0DBFF030EDBCF14F0040EDBCF15F015
:10597000080E145E000E155A050E0D6E0E6A14C048
:1059800008F015C009F076EC5FF004C014F005C013
:1059900015F0020E04C0DBFFE5C4E9FFE6C4EAFF30
:1059A000100EE926000EEA22E9CF14F0EACF15F036
:1059B000010EDB50070DE950F324E96EEA50F420A4
:1059C000EA6EEF50040A56E0060A28E0010A26E0D3
:1059D000020A60E1E5C4E9FFE6C4EAFF100EE92629
:1059E000000EEA22E9CF14F0EACF15F0010EDB50E9
:1059F000070DE950F324E96EEA50F420EA6EEE5206
:105A0000EF50800B02E08AEC5EF0020EDB500308E0
:105A100005E1030EDB06040E01E2DB06020EDB509D
:105A200009E1D950030FE96EDACFEAFF020EEE2644
:105A3000000EED22020EDB50040809E1D950030FDD
:105A4000E96EDACFEAFF030EEE5E000EED5A080EA5
:105A5000DB50E76E030EDBCF14F0040EDBCF15F046
:105A6000E75014121450E66EBCEC5DF0E5528EEC7B
:105A70005EF010D0080EDB50E76E030EDBCF14F0A3
:105A8000040EDBCF15F0E75014121450E66EBCEC98
:105A90005DF0E552DF06DAD60A0EE15C02E2E16A69
:105AA000E552E16EE552E7CFD9FF1200D9CFE6FF0C
:105AB000E1CFD9FF090EE126DAEC5DF0E76E020EC8
:105AC000E7CFDBFFDB5001E147D1020EDB0402E14F
:105AD00097D942D1020EDB50020802E1050E11D027
:105AE000020EDB50030802E10A0E0BD0020EDB505F
:105AF000040802E1140E05D0020EDB50050807E190
:105B0000320EE66EE66A34D9E552E55227D1020E2E
:105B1000DB50800BE76E040EE7CFDBFF020EDB509D
:105B20007F0BE76E030EE7CFDBFF080EF36E030E6D
:105B3000DBCFF4FFF350F45C01E20ED1580EF36EAC
:105B4000030EDBCFF4FFF350F45C01E305D1030E49
:105B5000DB50F80F146E050E156E0E6E14C009F0B2
:105B6000C6EC61F00950DF6E030EDB50F80F146EC7
:105B7000050E156E0E6E14C009F0C6EC61F0030E32
:105B800005C0DBFFE5C4E9FFE6C4EAFF100EE92625
:105B9000000EEA22E9CF14F0EACF15F0DF50070D2E
:105BA000E950F324E96EEA50F420EA6E010EEFCFDB
:105BB000DBFFDBCFE6FF030EDBCFE6FFDFCFE6FF49
:105BC0009EEC5CF0E552E552E552010EDBCFE6FFBC
:105BD000030EDBCFE6FFDFCFE6FF1FEC5DF0E55203
:105BE000E552E55200090DE0010EDBCFE6FF030EA2
:105BF000DBCFE6FFDFCFE6FF64EC5CF0E552E55279
:105C0000E552010EF36E050EF3CFDBFF040EDB5001
:105C100001E193D0050EDBCFE6FFFFEC5DF0E5522E
:105C2000E76E060EE7CFDBFFDB5001E186D0060E04
:105C3000DB50800BE76E040EE7CFDBFF060EDB9E2A
:105C4000DB50F80F146E050E156E0E6E14C009F0C1
:105C5000C6EC61F0070E09C0DBFFDF50F36E070EE4
:105C6000DB50F35C6AE0060EDB50F80F146E050E95
:105C7000156E0E6E14C009F0C6EC61F0060E05C07C
:105C8000DBFFE5C4E9FFE6C4EAFF100EE926000EDB
:105C9000EA22E9CF14F0EACF15F0070EDB50070D2A
:105CA000E950F324E96EEA50F420EA6E080EEFCFD3
:105CB000DBFFDBCFE6FF060EDBCFE6FF070EDBCF19
:105CC000E6FF9EEC5CF0E552E552E552080EDBCFB4
:105CD000E6FF060EDBCFE6FF070EDBCFE6FF1FEC8D
:105CE0005DF0E552E552E55200090EE0080EDBCF0B
:105CF000E6FF060EDBCFE6FF070EDBCFE6FF64EC28
:105D00005CF0E552E552E552080EDBCFE6FF060EE9
:105D1000DBCFE6FF070EDBCFE6FF60EC5DF0E55280
:105D2000E552E552000906E0050EDBCFE6FF4BEC3D
:105D30005EF0E552050EDB2A69D7010EDBCFE6FFE8
:105D4000030EDBCFE6FFDFCFE6FF60EC5DF0E55250
:105D5000E552E552000902E0FDEC5DF0090EE15C60
:105D600002E2E16AE552E16EE552E7CFD9FF1200A7
:105D7000D9CFE6FFE1CFD9FF0301FC51FD11FE11A0
:105D8000FF110BE160EC60F006C0FCF307C0FDF30F
:105D900008C0FEF309C0FFF32FD060EC60F00301F0
:105DA000FC51065C146EFD510758156EFE510858E3
:105DB000166EFF510958176EFD0EDBCF06F0FE0E72
:105DC000DBCF07F0086A096A6A0E0B6E180E0C6EBC
:105DD0000D6A0E6A09EC61F01450025C155003580C
:105DE000165004581750055807E2FDEC5DF003010A
:105DF000FC6BFD6BFE6BFF6BE552E7CFD9FF12002A
:105E0000D9CFE6FFE1CFD9FF040EE126020EDB6A0F
:105E1000100EF36E020EDBCFF4FFF350F45C01E3DF
:105E2000C3D2E5C4E9FFE6C4EAFF100EE926000E7E
:105E3000EA22020EDB50070DE950F324E96EEA5026
:105E4000F420EA6EEE52EF50400BE76E030EE7CF00
:105E5000DBFFE5C4E9FFE6C4EAFF100EE926000E09
:105E6000EA22E9CF14F0EACF15F0020EDB50070D5D
:105E7000E950F324E96EEA50F420EA6EEF50050A87
:105E800001E155D2030A01E152D2020A01E145D1F2
:105E9000070A01E11BD1010A4BE0030A1DE0010AD8
:105EA00001E07FD2030EDBCFE6FF020EDB50EA6A91
:105EB000100FE96E0E0EEA22EF50E66E020EDB5076
:105EC000040DF350080FE66E79DAE552E552E5521B
:105ED000000901E066D2E6D7020EDB50156AC60F54
:105EE000146E030E152214C0E6FF15C0E6FF2CEC5D
:105EF00054F0E552E552E76E010EE7CFDBFF030EEB
:105F0000DBCFE6FF010EDB50020802E1000E01D0FC
:105F1000010EE66E020EDB50040DF350080FE66E24
:105F20004DDAE552E552E552000901E03AD2E7D7F1
:105F3000030EDBCFE6FF020EDB50EA6A100FE96EBC
:105F4000030EEA22EFCF14F0E5C4E9FFE6C4EAFF4E
:105F5000100EE926000EEA22E9CF15F0EACF16F07E
:105F6000020EDB50070DE950F324E96EEA50F420ED
:105F7000EA6E020EE926000EEA22EF50145C02E0FF
:105F8000000E01D0010EE66E020EDB50040DF35040
:105F9000080FE66E13DAE552E552E5520009C8E053
:105FA000030EDBCFE6FF020EDB50EA6A100FE96E4C
:105FB000030EEA22EFCF14F0E5C4E9FFE6C4EAFFDE
:105FC000100EE926000EEA22E9CF15F0EACF16F00E
:105FD000020EDB50070DE950F324E96EEA50F4207D
:105FE000EA6E020EE926000EEA22EE52EF50145C31
:105FF00002E0000E01D0010EE66E020EDB50040D31
:10600000F350080F020FE66ED9D9E552E552E5527A
:106010000009C6E0E5C4E9FFE6C4EAFF100EE92680
:10602000000EEA22E9CF17F0EACF18F0020EDB509B
:10603000070DE950F324E96EEA50F420EA6E020EEF
:10604000E926000EEA22EF50FE0BE842166EE5C488
:10605000E9FFE6C4EAFF100EE926000EEA22EACFC5
:1060600015F0020EDB50070DE950F324E96EEA50FB
:10607000F420EA6E020EE926000EEA22EE52EF50FC
:10608000FE0BE8421624DF6E030EDBCFE6FF020EA6
:10609000DB50EA6A100FE96E030EEA22EFCF14F02C
:1060A000DF50145C02E2000E01D0010EE66E020E1B
